:020000040800F2
:10000000289C0120150300080F39000883350008DB
:10001000A53800089B1F00088FAF000800000000F3
:10002000000000000000000000000000998F0008A0
:10003000AD2A000800000000171F00089590000876
:100040002F0300082F0300082F0300082F030008C8
:100050002F0300082F0300082F0300082F030008B8
:100060002F0300082F0300082F0300082F030008A8
:100070002F0300082F030008AD290008E12900081C
:100080002F0300082F0300082F0300082F03000888
:100090002F0300082F0300082F0300082F03000878
:1000A0002F0300082F0300082F0300082F03000868
:1000B0002F0300082F0300082F0300082F03000858
:1000C0002F0300082F0300082F0300082F03000848
:1000D0002F0300082F0300086191000871910008A8
:1000E0002F0300082F0300082F0300082F03000828
:1000F0002F0300082F0300082F0300082F03000818
:100100002F0300082F0300082F0300082F03000807
:100110002F0300082F0300082F0300082F030008F7
:100120002F0300082F0300082F0300082F030008E7
:100130002F030008CD2C00082F0300082F03000810
:100140002F0300082F0300082F03000895840008E0
:100150002F0300082F0300082F0300082F030008B7
:100160002F0300082F0300082F0300082F030008A7
:100170002F0300082F0300082F0300082F03000897
:100180002F0300082F03000800F002F800F0B2F877
:100190000AA090E8000C82448344AAF10107DA45E2
:1001A00001D100F0A7F8AFF2090EBAE80F0013F082
:1001B000010F18BFFB1A43F001031847C463010085
:1001C000E46301000A444FF0000C10F8013B13F007
:1001D000070408BF10F8014B1D1108BF10F8015BA0
:1001E000641E05D010F8016B641E01F8016BF9D193
:1001F00013F0080F1EBF10F8014BAD1C0C1B09D1EA
:100200006D1E58BF01F801CBFAD505E014F8016B5B
:1002100001F8016B6D1EF9D59142D6D370470000ED
:100220000023002400250026103A28BF78C1FBD8FF
:10023000520728BF30C148BF0B6070476E2900F0DD
:100240002983702900F06B84662915F0BE86652924
:1002500015F0BB86672915F0B886612915F0B786B9
:1002600003681B0A28BF41F08001692900F0D6828B
:10027000642900F0D382752900F0D0826F2900F044
:10028000F883782900F03784E92900F09383E42982
:1002900000F09083F52900F08D83EF2900F0F583BD
:1002A000F82900F036840368DB0928BF41F080019B
:1002B000632901F03B81732901F04081E32901F0BA
:1002C0004B81F32901F05081002070471FB515F0D4
:1002D00077FE00F03DFA04000020002115F044FEF6
:1002E000401C60600020002115F054FEE0601FBD3E
:1002F00010B510BD01F05CF91146FFF7E7FF0FF0F4
:100300002BF801F029FA03B4FFF7F2FF03BC0AF05F
:10031000B2FE00000948804709480047FEE7FEE7B3
:10032000FEE7FEE7FEE7FEE7FEE7FEE7FEE7FEE7A5
:1003300004480549054A064B70470000F99000083B
:100340008901000828960120289C01202898012076
:100350002898012072B6704762B67047EFF310809C
:1003600072B6704780F31088704730BF704720BF67
:100370007047B0FA80F0704790FAA0F0B0FA80F0C1
:10038000704790FAA0F070477047000010B500F079
:10039000DFF9001D10BD00BFD15B010053EA020C64
:1003A00000F069802DE9F04B4FF00006002B1FBFD5
:1003B000B3FA83F503FA05F424FA05F65E4012BF9A
:1003C0001643B2FA82F502FA05F4C5F120051EBF04
:1003D00022FA05FC44EA0C04203556EA044C4FEAA4
:1003E000144418BF641C4FF000084FF000099042FD
:1003F00071EB030C39D3002919BFB1FA81F701FA67
:1004000007F6B0FA80F700FA07F6C7F120071EBF1B
:1004100020FA07FC46EA0C062037B6FBF4FCA7EBF3
:100420000507103F07F01F0BCBF120060CFA0BFB62
:100430002CFA06F644BFB3460026202FA4BF5E4622
:100440004FF0000B5BEA060C08BF4FF0010B19EBF5
:100450000B09ABFB027C48EB0608C01B06FB02CC79
:100460000BFB03CC71EB0C01C1E70B460246414686
:100470004846BDE8F08B13B54FF000004FF0000187
:10048000AFF30080BDE81C40704700001CB50C466F
:10049000064B7B4469460090204600F014FA04465F
:1004A0000020694600F022FA20461CBD57040000D7
:1004B00040EA010310B59B070FD1042A0DD310C8E1
:1004C00008C9121F9C42F8D020BA19BA884201D933
:1004D000012010BD4FF0FF3010BD1AB1D30703D07B
:1004E000521C07E0002010BD10F8013B11F8014B31
:1004F0001B1B07D110F8013B11F8014B1B1B01D14D
:10050000921EF1D1184610BD10B5431C02E010F840
:10051000011B71B18107FAD14FF0013202C88C1A68
:100520008C4314EAC211F9D0C01A0A0603D0C01EC7
:1005300010BDC01A10BD0A0401D0801E10BD0902F2
:10054000FCD0401E10BD032A40F2308010F0030C96
:1005500000F0158011F8013BBCF1020F624498BF16
:1005600011F801CB00F8013B38BF11F8013BA2F1B3
:10057000040298BF00F801CB38BF00F8013B11F02E
:10058000030300F02580083AC0F0088051F8043BCE
:10059000083A51F804CBA0E80810F5E7121D5CBF3B
:1005A00051F8043B40F8043BAFF30080D20724BF6E
:1005B00011F8013B11F801CB48BF11F8012B24BF02
:1005C00000F8013B00F801CB48BF00F8012B704751
:1005D00010B5203AC0F00B80B1E81850203AA0E8DE
:1005E0001850B1E81850A0E81850BFF4F5AF5FEA12
:1005F000027C24BFB1E81850A0E8185044BF18C9C5
:1006000018C0BDE810405FEA827C24BF51F8043B6B
:1006100040F8043B08BF7047D20728BF31F8023BBF
:1006200048BF11F8012B28BF20F8023B48BF00F853
:10063000012B70474FF000020429C0F0128010F027
:10064000030C00F01B80CCF1040CBCF1020F18BFAE
:1006500000F8012BA8BF20F8022BA1EB0C0100F041
:100660000DB85FEAC17C24BF00F8012B00F8012B14
:1006700048BF00F8012B70474FF0000200B5134649
:1006800094469646203922BFA0E80C50A0E80C50B2
:10069000B1F12001BFF4F7AF090728BFA0E80C5063
:1006A00048BF0CC05DF804EB890028BF40F8042B5C
:1006B00008BF704748BF20F8022B11F0804F18BFC9
:1006C00000F8012B704700004FF0013C50F8042B5C
:1006D00051F8043B9A4221D1A2EB0C03934313EA55
:1006E000CC1317D150F8042B51F8043B9A4215D182
:1006F000A2EB0C03934313EACC130BD150F8042B59
:1007000051F8043B9A4209D1A2EB0C03934313EA3C
:10071000CC13DBD04FF00000704700BFD01A01BAF5
:10072000B1FA81F101F0180122FA01F0CB40C1F1D8
:100730002001DBB2C0B2C01A2CFA01F3D11A9143E6
:1007400011EAC311E6D17047704770477047704790
:1007500000487047E895012070B504468569006837
:10076000C10601D5302600E02026C00707D070BDA5
:10077000D4E9012130469047206A401C20626D1E5A
:10078000F6D570BD70B5044685690078C00707D1FD
:1007900070BDD4E9012120209047206A401C2062CE
:1007A0006D1EF6D570BD09684A0501D540B2704787
:1007B000C905FCD500B2704709684A0501D5C0B229
:1007C0007047C905FCD580B2704770B50C46054628
:1007D000012A05D02878800600D5EA69002302E0C6
:1007E000012305E05B1C934202D2E05C0028F9D1B2
:1007F000A869E618C01AA861286A18442862284621
:10080000FFF7AAFF04E0D5E9012114F8010B904796
:10081000B442F8D32846FFF7B5FF70BD2DE9F0418B
:100820000646002410687529314616A510D0FFF73A
:10083000BAFF002802DA404213A507E031688A07B0
:1008400001D512A502E0490704D511A5012401E054
:10085000FFF7B2FF00210A2206F1240709E0B0FBEE
:10086000F2FCB0FBF2F302FB1C0030307854184667
:10087000491C0028F3D123462A463046BDE8F04102
:1008800000F065BA000000002D0000002B00000001
:100890002000000011680268006A530501D5087045
:1008A0000AE0D30501D5088006E0130603D5C21778
:1008B000C1E9000200E008600120704701694A1C9C
:1008C00002610878704700B58FB0CDE90131002191
:1008D000059105497944CDE903101146684600F0B9
:1008E00029F90FB000BD0000E5FFFFFF0A6802F81C
:1008F000010B0A60704700002DE9FF5F15468A462C
:100900000446DFF8AC80F8440027D8E900103E46E2
:10091000CDE9001010E03AF816106A4602A800F07F
:1009200027FE411C07D02178890603D5E2693918D2
:1009300091420DD80744761C2078800602D5E069E4
:10094000B84205DDAE42E6DB3AF816000028E2D1F7
:10095000A069C01BA0612046FFF7FEFED8E9001089
:10096000CDE90010002017E03AF818106A4602A8F6
:1009700000F0FEFDB0F1FF3F81460BD000250DF1E8
:10098000080B05E0D4E901211BF8050090476D1C18
:100990004D45F7D308F10100B0428046E4DB206A00
:1009A000384420622046FFF7EDFEBDE8FF9F0000BF
:1009B000CE5901002DE9F0418046D21D22F00702F8
:1009C0000025D2E90002F52915A614D0011E72F106
:1009D000000106DA0023D0EB030063EB020211A64C
:1009E00008E0D8F800108B0701D50FA602E04907F0
:1009F00001D50EA601251146002408F1240704E0C4
:100A000000F060F930323A55641C50EA0102F7D127
:100A10002B46324621464046BDE8F04100F097B9EA
:100A2000000000002D0000002B000000200000004E
:100A300030B4002100F1240408E002F00705D208D8
:100A4000303542EA4372DB086554491C52EA03051B
:100A5000F3D10468002310A2250707D5A40600D40B
:100A600021B1C46901230DA2641EC46130BC00F031
:100A70006EB910B5044621461068FFF79DFE024688
:100A80002046BDE810400023D2E7D21D22F0070126
:100A9000D1E90023CCE70000000000003000000096
:100AA000F0B40D460188090502D5214C7C4402E0D2
:100AB0001F4C7C440E34002100F1240608E002F0B3
:100AC0000F071209E75D42EA03721B097754491CBC
:100AD00052EA0307F3D102780023120704D5702DE0
:100AE00006D009B1022311342246F0BC00F02FB920
:100AF00001231034F8E770B504460D46214610680E
:100B0000FFF75AFE024629462046BDE87040002302
:100B1000C6E7D21D22F00703D3E90023C0E703682C
:100B2000126843F0200303600823C3610023B7E782
:100B3000305801002DE9F05F894604464FF0000A65
:100B4000DFF874B1FB44C0F820A02046E168884774
:100B5000002874D0252806D0D4E901219047206AC6
:100B6000401C2062F1E700265F462046E168884786
:100B70002028054607DB312D05D2781910F8200C06
:100B800008B10643F1E7B00701D526F00406C4F822
:100B90001CA00027C4F818A02A2D09D028460AF066
:100BA00063FA38B304EB8708303DC8F8185019E0F1
:100BB00059F8041B204604EB87029161E1688847DD
:100BC000012F054618D1E069002820DA26F020061A
:100BD0001DE0D8F8180000EB800005EB400030382D
:100BE000C8F818002046E168884705460AF03CFA34
:100BF0000028EED1012F0AD02E2D08D12046E16821
:100C000088477F1C0546022F46F02006C4DBA069FA
:100C1000002803DA404246F00106A061F00701D047
:100C200026F010066C2D0BD0682D09D04C2D39D034
:100C30006A2D35D0742D35D07A2D33D016E038E0BA
:100C4000E1682F4620468847B842054609D16C2FF7
:100C500026D04FF48060E168064320468847054669
:100C600004E06C2F1AD04FF4807006430DB3A5F149
:100C70004100192802D8203546F400664A46294624
:100C8000204626604E46FFF7D9FA80B101280BD0E6
:100C9000F61D26F0070000F1080956E74020E4E7BA
:100CA0008020D8E70020D6E706F104094DE7284662
:100CB00052E7206ABDE8F09FC05701000048704726
:100CC000C895012030B5B0F10A024FEA900E71F1DB
:100CD00000034EEA817EB0EB0E0061EB91014FEA1A
:100CE000101E4EEA017E10EB0E0041EB11114FEA8F
:100CF000102E4EEA016E10EB0E0041EB11214FEA6F
:100D0000104E4EEA014E10EB0E0041EB114140181F
:100D100041F100014FEAD00040EA41704FEAD101B1
:100D200010EB80054FEA810444EA907444EB01041F
:100D30006D1944EB0404521BA3414FF0000348BF5C
:100D40000A3200D530BD401C41F1000130BD2DE913
:100D5000F0470D4699469246044600F12408016882
:100D6000880604D5E06921F01001216000E001202F
:100D7000A84201DD471B00E00027A1697A1902EBB8
:100D80000900081AA0612078C00602D42046FFF7A7
:100D9000E3FC002608E0D4E901211AF80600904798
:100DA000206A401C761C20624E45F4DB2078C00689
:100DB0000AD52046FFF7D0FC06E0D4E90121302017
:100DC0009047206A401C2062381EA7F10107F4DC1E
:100DD00007E0D4E9012118F805009047206A401C7B
:100DE0002062281EA5F10105F3DC2046FFF7CAFCAE
:100DF0002078000602D50220BDE8F0870120FBE73D
:100E000070472DE9FF4F0C461E464FF0FF378BB061
:100E1000D2E90001DDF860800A908A46C1F30A55E4
:100E200005B93D46002108464FF00000BAF1000F19
:100E300000F4400005DA00EB80004FF4400101EAC5
:100E400050004FEA9059B9F1010F00DDB9460A98F8
:100E500050EA4A000ED044F61050A5F2FF35454343
:100E60002F14B8F1000F1ED07542291E1EDDC9F1E6
:100E700000021CE0B8F1010F4FF0000001D030215A
:100E800003E0F24305E02154401CB042FBDB304656
:100E90000022002121540B99C1F80880C1E90020EB
:100EA0000FB0BDE8F08FBD1B6D1CDEE74A4600DACF
:100EB000694206A800F0E2FB06AB93E8070003AB2B
:100EC00083E8070050460A9900F04FFC8DE80700C0
:100ED000A0F500501F3800900398002D09DD42F264
:100EE0001F014A46084403A90390684600F0AEFE7D
:100EF00008E0A0F500504A461F3803A90390684651
:100F000000F0B8FE8DE807000004000C03D04FF09D
:100F1000FF30410800E01046B8F1000F03D0002276
:100F2000009215461EE0751E05D4FFF7CBFE303249
:100F300062556D1EF9D5B3460122084302D0002246
:100F40007F1C04E02078302801D100227F1E002A77
:100F5000099786D01DE0112D07DAFFF7B3FE303276
:100F600062556D1C50EA0102F5D1084302D0009889
:100F7000C8B10EE00021681E05E0235C625C63548A
:100F80002254401E491C8142F7DBAB46A81B401E81
:100F90000990002004F80B000B98099AC0F808800B
:100FA000C0E9002B7CE711264FF0000859E72DE936
:100FB000F04F88460446D21D22F0070191B0D1E9D6
:100FC0000001CDE90A0109F0E4FF02460B98C00FC9
:100FD00001D02D2007E02068810701D52B2002E0F9
:100FE000202101EAC000032A099001D0072A05DB6D
:100FF00003464146204600F001FB0BE120788006C5
:1010000001D5E06900E00620B8F1650F814606D001
:10101000B8F1660F18D0B8F1670F70D131E0002039
:10102000B9F1110F009001DB112301E009F1010377
:101030000AAA01A90CA8FFF7E4FEDDE90C7000265E
:1010400009F10105834647E001204B4600904FF02F
:1010500000470AAA01A90CA8FFF7D3FEDDE90DB0ED
:101060000C995D46002610B909F101000D18B9EB85
:10107000050003D4C0F1FF3609F10105A5EB090015
:101080002BE0B9F1010F01DA4FF001090020B9F1AD
:10109000110F0090484601DD112300E003460AAA23
:1010A00001A90CA8FFF7ADFEDDE90C704D46002646
:1010B0008346207800070AD4AB4500DA5D4601A8D4
:1010C000012D04DD411911F8011C302907D04F45CD
:1010D00002DA17F1040F04DA012082460FE06D1ED8
:1010E000EEE7002F02DCED1B3E4403E0781CA84233
:1010F00000DD7D1CB81B00F1010A4FF0004720788D
:10110000000703D4AA4501DB4FF0FF3A0021B7F1F5
:10111000004F0DF143088DF8431024D002202B23FB
:10112000002F01DA7F422D230A21021EA0F10100C7
:1011300000DC5FB197FBF1FC97FBF1F201FB1C7C3B
:1011400017460CF1300C08F801CDEEE7A8F10100CC
:1011500003702188090501D5452100E06521A0F132
:10116000010800F8011C09980FA9A1EB0807FF1D51
:1011700000B10120411901EBEA70A1693844081A55
:10118000401EA0612078C00602D42046FFF7E4FA92
:10119000099828B1D4E901219047206A401C2062B7
:1011A0002078C00622D52046FFF7D6FA1EE0002E92
:1011B00004DBB34502DD01A8805D00E03020D4E906
:1011C00001219047206A401C2062761CAAF1010090
:1011D0005FEA000A0AD1FFF7BBFAC0680168405C09
:1011E000D4E901219047206A401C2062281EA5F105
:1011F0000105DCDC07E0D4E9012118F8010B904778
:10120000206A401C2062381EA7F10107F3DC20464B
:10121000FFF7B8FA032011B043E600002DE9F04FC4
:1012200004460D46D21D22F0070089B0D0E9009790
:101230004846394609F0ADFE0246F80F01D02D238D
:1012400007E02068810701D52B2302E0202101EA75
:10125000C0038DF820300BB1012000E00020032AEC
:10126000824601D0072A04DB2946204600F0C6F951
:101270003FE12078800601D40D2500E0E569C7F341
:101280000A560D2D49DA00214FEA175B08464FF048
:101290000000002F00F4400007DA00EB80004FF45C
:1012A000400100EBD07001EA60008115012901DDE9
:1012B0004FF0FF3100224FEA850CBCF1180F06D326
:1012C0001346ACF118004FF08052C24003E04FF4D7
:1012D000801323FA0CF30CF10C0CBCF1200F04D397
:1012E000ACF1200C09FA0CF001E007FA0CF000292F
:1012F0004FF0004801DD18B90FE00ED140450CD386
:1013000019EB02095F4121B9404502D19F4329EA07
:101310000209BBEB175F00D0761C2088000502D5C0
:101320007B48784402E07A487844193808AA302388
:1013300002F80A30037C0AF10101002E0AF1020AC8
:1013400053546A4602DC4FF0300101E04FF03101A6
:101350004FF001088DF8001002D0A6F2FF3603E02E
:1013600059EA470100D06B4E002D02DC21780907B5
:1013700004D54FF002082E218DF80110C44600213B
:101380000BE0C7F303433F01C35C491C6D1E02F829
:101390000830052908F1010801DA002DF1DC0021EF
:1013A0000CE000EB1973491C1B786D1E082902F82C
:1013B00008304FEA091908F1010801DA002DF0DCC4
:1013C00021688B0602D516E0A8F10108E04505DD8D
:1013D00002EB080313F8013C302BF5D0B8F1000FF5
:1013E00009DD02EB080313F8013C2E2B03D109079A
:1013F00001D4A8F10108002D05DD3E2102F80810F6
:101400006D1E08F10108407C002E02F8080008F16A
:10141000010804DA2D20764202F8080002E02B20B1
:1014200002F808000A214FF47A70864208F1010898
:101430000BDB96FBF0F3303302F8083096FBF0F349
:1014400008F1010800FB136601E0642E0CDB642048
:1014500096FBF0F3303302F8083096FBF0F308F116
:10146000010800FB136601E00A2E06DB96FBF1F093
:10147000303002F8080008F1010896FBF1F001FB9A
:101480001060303002F80800A16908F1010808EB8B
:10149000050202EB0A00081AA0612078C00602D4F7
:1014A0002046FFF759F9216A08AE01EB0A002062D5
:1014B00004E0D4E9012116F8010B9047BAF1010AC2
:1014C000F7D22078C00602D52046FFF745F96E46D0
:1014D00009E016F8010B3E280FD0D4E9012190470E
:1014E000206A401C2062B8F10108F2D22046FFF7C2
:1014F00049F909B00320BDE8F08F206A2844206232
:1015000003E0D4E90121302090476D1EEBD3F8E7CA
:101510000650010002FCFFFF10B5436913B1AFF3A1
:10152000008001E0FFF751F9012010BD127800F1B1
:1015300024010A7000224A700122EDE711684FF081
:10154000FF32E9E710B5436913B1AFF3008001E062
:10155000FFF7D2F9012010BD128800F12401828426
:101560000022C2840122EDE711684FF0FF32E9E763
:1015700070B516460C460546FEF708FF036893F85B
:101580000101012806D0FF2C0FD8185D68B1012099
:101590002C7070BDD3F807013246214603F20713C1
:1015A00003442846BDE8704018474FF0FF3070BD37
:1015B0007546FFF783FBAE4605006946534620F0AB
:1015C0000700854618B020B5FEF7B2FEBDE8204002
:1015D0004FF000064FF000074FF000084FF0000BEF
:1015E00021F00701AC46ACE8C009ACE8C009ACE8A2
:1015F000C009ACE8C0098D46704700002DE9F041F4
:101600001F46044603260168072A01F4006004DB34
:1016100008B116A505E016A503E008B115A500E080
:1016200015A521F010002060A069C01EA0610FB1B7
:10163000401EA0612046FFF78FF84FB1D4E9012189
:1016400038469047206A401C2062C01C206206E099
:10165000206AFAE7D4E9012115F8010B9047761EBC
:10166000F8D22046FFF78EF8BDE8F0814E414E00DB
:101670006E616E00494E4600696E66002DE9F047C6
:10168000814616468AB0334878440DC88DE80D006F
:1016900030487844801C03AC0DC884E80D0041F646
:1016A0009B300844372190FBF1F290FBF1F5A5F156
:1016B000800501FB12041B3C02D56442012000E0BE
:1016C0000020DFF890A080460027FA44AAF1BE0A65
:1016D0000DE0E00709D03246684607EB47010AEB08
:1016E000810100F0C7FA8DE8070064107F1C002C10
:1016F000EFD1184F7F44AC3F18E0E80714D007EB58
:1017000004100DF1180A90E80E008AE80E00C06877
:10171000F04201D198190890324606A903A800F0BA
:10172000A9FA03AB83E807006D10641C002DE4D117
:1017300032466946B8F1000F03A802D000F086FADD
:1017400001E000F097FAC9E90001C9F808200AB0E1
:10175000BDE8F087304D010010B50446AFF30080BE
:101760002046BDE81040FEF7CEBD5FEA400C08BF42
:1017700091F0000F4FEA8C234FEAC12243EA515106
:101780004FEA1C5018BF00F5F0404FEA300018BF78
:1017900041F000415FEA6C5C00F02980BCF1FF3F42
:1017A00008BF40F080407047130C06BF12044FF092
:1017B000100C4FF0000C130E04BF12020CF1080CB9
:1017C000130F04BF12010CF1040C930F04BF92001D
:1017D0000CF1020CD30F04BF52000CF1010C1146A6
:1017E0004FF00002A0F11F00A0EB0C00704711F0B9
:1017F000004F08BF704731F000413FF4D5AF0B0CEC
:1018000006BF09044FF0100C4FF0000C0B0E04BF84
:1018100009020CF1080C0B0F04BF09010CF1040CB8
:101820008B0F04BF89000CF1020CCB0F04BF4900E1
:101830000CF1010CCCF12003A0EB0C0022FA03F315
:1018400002FA0CF241EA030100F10100704720F0B6
:101850007F4C80EA030023F07F47ACEB070303F5DE
:101860007C5300F0004003F1FF032DE980494FEA6B
:10187000154B09B44FEA144325EA0B4E24EA0348FA
:101880000FF2042606EB132749083E785FEA32027E
:1018900003FB0667C7F5000707FB06F64FEA543758
:1018A0004FEAD64606F1020607FB066CCCF1005C57
:1018B0004FEA1C472CEA074C07FB06F40CFB06F525
:1018C00004EB15464FEA961634BF00204FF0004057
:1018D0004FEAD13706FB07FC4FEA1C4C0CFB0BF719
:1018E000D21B03FB0CF761EB07010CFB0EF7B0EB0F
:1018F000074072EB17420CFB08F734BFA2EB07421C
:10190000B2EB074261EB17414FEA0C444FEA9107F3
:1019100006FB07FC4FEA1C4C0CFB0BF7B0EBC74077
:1019200072EB573203FB0CF734BFA2EBC742B2EBAA
:10193000C74261EB57310CFB0EF7B0EBC70072EBFF
:1019400057720CFB08F734BFA2EBC702B2EBC70219
:1019500061EB5771039F4FEA816141EA921104EBF9
:10196000CC044FEAD1374FEA826206FB07FC42EA19
:1019700090124FEA80604FEA1C4C0CFB0BF7D21B15
:1019800003FB0CF761EB07010CFB0EF7B0EB074014
:1019900072EB17420CFB08F734BFA2EB0742B2EB25
:1019A000074261EB17414FEA8C554FEA910704EB70
:1019B0009C2406FB07FC4FEA1C4C0CFB0BF7B0EB1E
:1019C000C74072EB573203FB0CF734BFA2EBC742A0
:1019D000B2EBC74261EB57310CFB0EF7B0EBC7001F
:1019E00072EB57720CFB08F734BFA2EBC702B2EBE5
:1019F000C70261EB577115EB4C254FEA816141EA53
:101A000092114FEA82624FEAD13742EA901206FB06
:101A100007FC44F100044FEA80604FEA1C4C0CFBC9
:101A20000BF7D21B03FB0CF761EB07010CFB0EF766
:101A3000B0EB074072EB17420CFB08F734BFA2EB88
:101A40000742B2EB074261EB174115EB1C154FEA59
:101A5000813141EA92414FEA823242EA90424FEAB2
:101A600080304FEA0C7644F1000448EA03434EEA22
:101A70000B484FF0000EB2EB080C71EB030724BFCC
:101A8000624639464EEB0E0E4FF0000B00185241E5
:101A900049414BEB0B0BB2EB080C71EB03077BF1ED
:101AA000000B24BF624639464EEB0E0E4FF0000B82
:101AB0000018524149414BEB0B0BB2EB080C71EB98
:101AC00003077BF1000B24BF624639464EEB0E0E36
:101AD00051EA020718BF46F0010616EB0E7655F1E3
:101AE000000254F1000103D5BDE88901BDE800887A
:101AF000BDE88901BDE80048B619524141EB01013A
:101B0000A3F10103704780807F7E7D7C7B7A7978AA
:101B1000777676757473727171706F6E6E6D6C6CB2
:101B20006B6A6A6968686766666564646363626154
:101B30006160605F5F5E5E5D5D5C5C5B5B5A5A59D5
:101B40005958585757565655555554545353525241
:101B50005251515050504F4F4F4E4E4D4D4D4C4C99
:101B60004C4B4B4B4A4A4A494949484848474747E2
:101B7000474646464545454444444443434343421F
:101B8000424242414141002B26D4770021D01CB56E
:101B90004FEA370703B44FF010004FF010014FF039
:101BA00000000FBCBDE810400BF1010BBBF1010FB1
:101BB00008BF5FEA170722BF12F1010211F101010C
:101BC0004FF0004143F1000300F0004043EA000001
:101BD0007047F9D35708DAE746EA064613F1400F93
:101BE0004FEA16461FDD13F1200FDFBF16430A46EA
:101BF000002120335B42C8D0C3F1200746EA0646E5
:101C000002FA07F74FEA164646EA0706C3F120072D
:101C100022FA03F201FA07F721FA03F14FF0000369
:101C200042EA0702B1E746EA020646EA06464FEAFA
:101C3000164646EA0106BCBF46EA0646360C4FF099
:101C400000034FF000024FF000019EE72DE9C0486D
:101C5000934630B491E8380007C831EA400C48BFD9
:101C600034EA430C03D5FFF7F2FDFFF78CFFF0BC1D
:101C7000BDE800882DE9C048934630B491E83800AB
:101C800007C810F0804F08BF13F0804F03D100F059
:101C900005F8FFF778FFF0BCBDE8008820F07F472B
:101CA00080EA030023F07F4C07EB0C03A3F57C5381
:101CB00000F00040A3F1FE0392F0000F00F0B380AB
:101CC00095F0000F00F077802DE901494FEA1140AF
:101CD0004FEA144621EA004800FB06FC24EA0647C6
:101CE00008FB06F607FB08F800FB07F718EB0648A9
:101CF0004CEB164C4FEA124B18EB07484FEA1546CF
:101D00004CEB174022EA0B4E0BFB06FC25EA06477C
:101D10000EFB06F607FB0EFE0BFB07F71EEB064E4F
:101D20004CEB164C4FF000061EEB074E4CEB174BDE
:101D300018EB0B0840F1000018EB0E0B58EB0008F5
:101D400040F100008F1A4FF000013CBFC943661BF1
:101D500014BFB5EB040C00213CBFC943F61B4FEA8E
:101D600017444EEA8E0E27EA04454FEA1C4704FB4F
:101D700007622CEA074C05FB07F70CFB05F604FB92
:101D80000CFC16EB074642EB174216EB0C4642EBF7
:101D90001C421BEB060658EB0202414146EA9E0636
:101DA00001D5BDE80189B619524141EB0101A3F10A
:101DB0000103BDE801894FEA14454FEA114724EABF
:101DC000054621EA074C05FB07F406FB07F70CFB69
:101DD00006F105FB0CFC11EB074144EB17444FEAFD
:101DE000124711EB0C4144EB1C4422EA074C05FB63
:101DF00007F206FB07F70CFB06F605FB0CFC16EBDF
:101E0000074642EB174216EB0C4642EB1C456A189C
:101E100054F1000148BF7047B619524141EB01012E
:101E2000A3F10103704795F0000F37D04FEA11423C
:101E30004FEA144721EA024624EA074C02FB07F165
:101E400006FB07F70CFB06F402FB0CFC14EB074443
:101E500041EB17414FEA154714EB0C4441EB1C4191
:101E600025EA074C02FB07F506FB07F70CFB06F615
:101E700002FB0CFC16EB074645EB174516EB0C4630
:101E800045EB1C42121951F1000148BF7047B619C9
:101E9000524141EB0101A3F1010370474FEA1445A0
:101EA0004FEA114724EA054621EA074C05FB07F1F2
:101EB00006FB07F70CFB06F24FF0000605FB0CFCD7
:101EC00012EB074241EB174112EB0C4251EB1C4164
:101ED00048BF7047921841EB0101A3F1010370471D
:101EE00022484FF6FF710170002080F309882048D6
:101EF000016881F308881F484FF08051016062B685
:101F0000FEE71C484FF080510160704719484FF0C0
:101F100080510160704772B6EFF3098050B11EF036
:101F2000100F08BF20ED108A203880E8F00F12490A
:101F30000968086000B5114880475DF804EB104857
:101F400010490A7802700C480F490A68026010684C
:101F500090E8F00F20301EF0100F08BFB0EC108A90
:101F600080F309884EF0040E62B6704722ED00E05F
:101F70004C01002004ED00E0440100206153000802
:101F8000D2000020D3000020480100201FB5684681
:101F900006F0E8FA019804B010BD00BFFEE710B5E6
:101FA00000F020F800F01AF810BD000010B5002471
:101FB00000BF00BFFEF7D2F9044600BF00BF1021EA
:101FC000054801F071FC00BF00BF2046FEF7CAF9CA
:101FD00000BF00BF10BD0000E046012010B5FFF7B4
:101FE000E5FF10BD10B500200249086000F00AF8B6
:101FF00010BD000078000020014908607047000013
:102000007800002010B5FFF7C1FF044608480068BB
:1020100040F0807006490860002006494860084684
:10202000006840F0010008602046FFF7E5FF10BDA2
:10203000FCED00E0001000E0014948687047000036
:10204000001000E070B506460C4604F080008028C1
:1020500008D104F07F0000EB800106F58E7000EBE4
:10206000C10507E004F07F0000EB800106F55D701C
:1020700000EBC10504F07F00287004F08000C00967
:1020800068702946304608F041FC002070BD70B5EC
:1020900006460C4604F08000802808D104F07F003A
:1020A00000EB800106F58E7000EBC10505E004EB46
:1020B000840106F55D7000EBC1050020A87004F0F6
:1020C0007F002870C4F3C01068702946304608F0BD
:1020D000F5FB002070BD70B505460C4604F080008D
:1020E000802805D104F07F01284608F009FE02E0AF
:1020F000284608F0DFFD002070BD2DE9F0410646BE
:102100000D4690461F4605F08000802808D105F056
:102110007F0000EB800106F58E7000EBC10407E044
:1021200005F07F0000EB800106F55D7000EBC10457
:1021300005F07F00207005F08000C0096070C4F8D1
:102140000880E770607808B12078E080022F01D124
:10215000002020712146304608F064FB0020BDE8D5
:10216000F0812DE9F04105460E461746984606F0E7
:102170007F0000EB800105F55D7000EBC104E760B6
:10218000C4F814800020A061607006F07F00207009
:10219000E878012800D12761207820B92146284617
:1021A00008F064FA03E02146284608F010FC0020FD
:1021B000BDE8F08108B500220092009A61F30A128E
:1021C000009202691268009B1A4303691A6008BDF5
:1021D00070B506460C4604F08000802808D104F053
:1021E0007F0000EB800106F58E7000EBC10505E075
:1021F00004EB840106F55D7000EBC1050120A870B9
:1022000004F07F002870C4F3C0106870294630467F
:1022100008F0ABFB002070BD2DE9F04107460D46EC
:102220001646984605F07F0000EB800107F58E709A
:1022300000EBC1040120607005F07F002070E660B3
:1022400026610020A061C4F81480207820B92146BE
:10225000384608F00BFA03E02146384608F0B7FB91
:102260000020BDE8F0811CB50446204608F0C9F9FD
:10227000E068C0680090204608F06CFD03280BD190
:102280000020A0704FF40070A080009820F47050DF
:1022900000F51050009009E00120A0704020A080BF
:1022A000009820F4705000F5A05000900098E1686C
:1022B000C86000200190019820F4005000F5005003
:1022C00001900198E168486101201CBDF8B5054600
:1022D000002400200090284608F07BFD064690E090
:1022E00006F0010000287DD0E1B2284600F002FB94
:1022F0000090009800F0010030B3012000FA04F7CC
:102300002869406BB8432969486300200090009811
:1023100020F00100401C009005F1180050F8240046
:1023200000998160E1B239480068426828469047C8
:10233000E878012808D13CB940F21110405D04282A
:1023400002D1284608F03DFA0098C0F3C00060B101
:1023500000200090009820F008000830009005F15F
:10236000180050F82400009981600098C0F3001014
:1023700060B100200090009820F010001030009014
:1023800005F1180050F82400009981600098C0F30E
:10239000801060B100200090009820F04000403094
:1023A000009005F1180050F8240000998160009811
:1023B000C0F3400060B100200090009820F00200BF
:1023C000801C009005F1180050F8240000998160ED
:1023D0000098C0F3C01028B12146284600F09EFAAC
:1023E000002000E00BE00090009820F0800080309A
:1023F000009005F1180050F8240000998160641CD9
:102400007608002E7FF46CAF0120F8BDA0010020FB
:102410007CB50446002500200190204608F0E1FC30
:1024200006466FE006F00100002869D0E9B22046B8
:1024300008F0DFFC0190019800F00100C8B3002013
:102440000190019820F00100401C019004F154001B
:1024500050F8250001998160E078012817D104F136
:10246000540050F825000069009005EB850104F543
:102470005D7000EBC10080680099C1F31201411A40
:1024800005EB850204F55D7000EBC2008161E9B2E5
:102490001E480068026820469047E078012808D16D
:1024A0003DB940F21110005D052802D1204608F028
:1024B00088F90198C0F3400060B1002001900198B4
:1024C00020F00200801C019004F1540050F8250017
:1024D000019981600198C0F3C00088B10B48006881
:1024E00081682046884700200190019820F008006C
:1024F0000830019004F1540050F8250001998160E2
:102500006D1C7608002E8DD101207CBDA00100201D
:102510003EB50446A07A70B1D4F80C010090009842
:1025200020F002000090009820F001000090009937
:10253000D4F80C01016000200190019820F0010006
:10254000401C0190206940680199884321694860D6
:102550000848006881692046884700200290029858
:1025600020F0004000F1004002900298E1684861CC
:1025700001203EBDA00100207CB504460020019052
:10258000019820F0100010300190E06880690199F6
:102590008843E1688861E068006A0090009800F074
:1025A0000F0000EB800104F55D7000EBC1050098A1
:1025B000C0F3434007282DD2DFE800F02C04051DAE
:1025C0001E2C1F0027E00098C0F30A1090B100985D
:1025D000C0F30A122046E96808F015FCE868009983
:1025E000C1F30A110844E860A8690099C1F30A110F
:1025F0000844A8610FE00EE00DE0082204F2CC517F
:10260000204608F000FCA8690099C1F30A110844AB
:10261000A86100E000BF00BFE0688069019908433D
:10262000E168886101207CBD38B50446084800682F
:10263000C1682046884700200090009820F00800DC
:10264000083000900098E1684861012038BD000022
:10265000A00100201FB50446002000904FF48970AF
:10266000005D009023480068416920468847206942
:102670008068019000200390039820F4006000F52A
:10268000006003900398E1684861A07A70B30198F4
:1026900000F0010050B340F21510005D012825D173
:1026A0009DF80000032821D100200290029820F01C
:1026B0000100401C0290D4F80C0100680299084304
:1026C000D4F80C110860029820F00200801C0290DF
:1026D000D4F80C01006802990843D4F80C11086082
:1026E0000548006840F0060003490860012004B076
:1026F00010BD0000A001002010ED00E030B587B053
:1027000004460020029006900590049003900190EA
:10271000029820F00100401C029020694068029954
:102720008843216948600021204608F0E9FA002525
:102730000BE0FF2104F1180050F82500816004F13E
:10274000540050F8250081606D1C6078A842F0D8D4
:102750004FF0FF312069816106986FF30F00401C34
:102760000690069880B200F58030069006992069A0
:10277000C161059820F0080008300590059820F008
:102780000100401C0590059820F00200801C059077
:10279000059920694161049820F00100401C0490D3
:1027A000049820F0080008300490049820F00200FB
:1027B000801C0490049920690161206900680390DD
:1027C000039820F4FE60039003992069016020467D
:1027D00007F0F7FF00200190019820F4805000F5E9
:1027E000805001900198E1684861044800680169DF
:1027F00020468847012007B030BD0000A00100201E
:102800002DE9F04106460F463946304608F010FBE8
:1028100001214FF4897081550021801C81550025CC
:1028200011E005EB850106F58E7000EBC104012077
:1028300060702570E5800020E0704020A0600020DE
:10284000E06060616D1C7078A842EAD8002510E055
:1028500005EB850106F55D7000EBC104002060709A
:102860002570E580E0704020A0600020E06060619D
:102870006D1C7078A842EBD8304607F0B1FE3046A8
:1028800007F0DEFC0021304608F03AFB304607F046
:102890006AFD304608F0FDF9BDE8F08138B5044620
:1028A0000020009007480068C169204688470098CA
:1028B00020F4801000F5801000900098E1684861D5
:1028C000012038BDA001002038B50446002000904A
:1028D00007480068016A20468847009820F40010E5
:1028E00000F5001000900098E1684861012038BDB3
:1028F000A001002030B5024615692B6915696C6B83
:1029000024FA01F505F0010543EAC51302F11805A3
:1029100055F82150AD6805EA030030BD2DE9F843B4
:1029200007460E4600250020009006EB860107F5BD
:102930008E7000EBC104D4E90501451AA068A842D5
:1029400000D2A568E81C4FEA900807F1180050F87B
:102950002600806900901BE0D4E90501451AA068B3
:10296000A84200D2A568E81C4FEA9008ABB2F2B2C8
:102970003846E16808F0EBFAE0682844E060A069B6
:102980002844A06107F1180050F8260080690090E3
:10299000009880B2404506D9D4E90510884202D299
:1029A00060690028D8D10120BDE8F88310B501F096
:1029B00057F90849084800F047F8012806D10549A9
:1029C000054800F027F805480068804701F05EF9E7
:1029D00010BD000000800018586002406400002014
:1029E00010B501F03DF90849084800F02DF801281C
:1029F00006D10549054800F00DF8054800688047F4
:102A000001F044F910BD00002080002070600240F9
:102A1000600000200246094B9A4201D2084801E0BA
:102A20000648103801F000531BB1064B0B40C36041
:102A300002E0044B0B4083607047000010640240CA
:102A4000006002407D0F7D0F70B50246002000241B
:102A50000025124EB24201D2114B01E00F4B103B48
:102A6000104E0E4036B11E2606EAD124166806EA3C
:102A7000040502E0566906F0800501F000560EB12B
:102A80005C6800E01C68084E344004EA010616B198
:102A90000DB1012000E0002070BD00001064024074
:102AA000006002403C0F3C0F7D0F7D0F704700001F
:102AB00001494861704700000090024029B1064A70
:102AC000D2690243044BDA6104E0034AD2698243CB
:102AD000014BDA61704700000090024030B10749B5
:102AE000896941F00201054A916105E0034989695C
:102AF00021F00201014A91617047000000900240FC
:102B000070B50C4613460021124D286000BF18E036
:102B100000EB41124FF00045156044F2F45555604A
:102B2000C1EBC11505EB450504EB850595605D1E00
:102B30008D4204D900EB41152035D56000E0D0600E
:102B4000491C9942E4D3044DE860044D044E3560BD
:102B500070BD00002800002000900240DC2500200D
:102B60002C00002030B10749896941F40051054A21
:102B7000916105E00349896921F40051014A91619D
:102B8000704700000090024030B50C46134600210B
:102B90000F4D286000BF15E000EB41124FF4801587
:102BA0001560C1EBC11505EB450504EB8505956086
:102BB0005D1E8D4204D900EB41152035D56000E043
:102BC000D060491C9942E7D3024D286130BD000016
:102BD000240000200090024010B50121480605F0B5
:102BE00071FC00214FF0007005F06CFC10BD01B5C8
:102BF00081B0002000900198009002E00098401EF3
:102C0000009000980028F9D10CBD000008B5002004
:102C100000900848806940F48010064988610846A1
:102C2000806900904FF6FF70FFF7E1FF01490098BF
:102C3000886108BD0090024010B50A480168002074
:102C400008F0DAFF08480168002008F0D5FF0748BF
:102C50000168002008F0D0FF05480168002008F056
:102C6000CBFF10BD680000206C0000207000002029
:102C7000740000200148006880687047240000202C
:102C800001460868C0F30D40704700B502460023B6
:102C9000106800F0004058B9106800F4004038B9DE
:102CA000106800F4807018B11046FFF7E9FF034682
:102CB000184600BD00200449096801F0010109B16E
:102CC000012000E0002070470090024010B501E0B4
:102CD0000CF00AFB06480068FFF7D7FF0028F7D181
:102CE0004020FFF7E5FE4FF48030FFF7E1FE10BD16
:102CF000280000202DE9F04188B004460F464FF02F
:102D00000008002500200790B94E02900120019094
:102D1000B848056925F01C0503A805F023FC049EAE
:102D2000B548864205D3B548864202D245F008052B
:102D30001AE0B248864205D3AD48864202D245F039
:102D40000C0511E0AA48864203D3AD48864200D262
:102D50000AE0AB48864205D3AA48864202D245F033
:102D6000040501E045F01005A24805614FF400425A
:102D70000021384600F064FB10B9002001906AE0A1
:102D8000A148FFF734FF2068002850D000BF029808
:102D9000401C02900121384600F026FA00F00400A1
:102DA00018B99A4902988842F1D398490298884202
:102DB00002D1002001904EE0002002904FF480529A
:102DC0000021384600F03CFB08B90020019000BF0C
:102DD0000298401C02900121384600F005FA00F0EC
:102DE000200018B9894902988842F1D3874902988E
:102DF000884202D1002001902DE0002002901F2186
:102E0000384600F0F1F9804608F0100018B14FF490
:102E10000060206201E00020206208F0040010B190
:102E20000020606116E04FF48040606112E0206A8B
:102E3000C0F3CF006169C1F34F0140EA01020021F4
:102E4000384600F0FDFA08B9002001906FF07F408D
:102E5000FFF7CDFE00BF019820B94FF4006020625B
:102E6000C00060616348056869480540D4E9010114
:102E70000843E16808432169084361690843A1697F
:102E80000843E1690843216A0843616A0843A16A6B
:102E90000843E16A0843216B0843616B084305431B
:102EA0005448056005684FF6FF70FFF7A0FE5148D3
:102EB0000560D4E90E010843216C0843616C0843A6
:102EC000A16C0843E16C0843216D0843616D084320
:102ED00048494860084645684FF6FF70FFF787FE8F
:102EE000444845604349A06D8860E06DC86008466D
:102EF00085694FF641700540B4F86010606E40EA95
:102F00000140A16E0843E16E0843216F0843616FE1
:102F1000084305433748856185694FF6FF70FFF721
:102F200066FE34488561D4E91E0108433149C86111
:102F30000846C5694FF6FF70FFF759FE2D48C56179
:102F40003448856934480540D4E920010843D4F861
:102F500088100843D4F88C100843D4F89010084324
:102F6000D4F894100843D4F898100843D4F89C106F
:102F70000843D4F8A01008430543264885618569B5
:102F80004FF6FF70FFF733FE22488561D4E929012F
:102F90000843D4F8AC100843D4F8B0100843D4F870
:102FA000B41040EA8100D4F8B810084340F400009F
:102FB00018490860084605684FF6FF70FFF717FECE
:102FC00014480560006840F0800012490860084617
:102FD00005684FF6FF70FFF70AFE0E48056001987E
:102FE000012802D108B0BDE8F0810020FAE7000016
:102FF0000087930300800240002D3101C00E1602AD
:1030000000E1F50580D1F008FFFF0F00FFFF04008D
:103010000F8120FF00900240233FDEF810B50B79AE
:103020004C7943EA0422094B03441A64CB781B060B
:103030008C7843EA04434C7843EA04230C7843EA4F
:103040000402024B03445A6410BD00000080024099
:1030500010B5B0B001214FF0606005F023FAFFF722
:10306000BBFD00F045F900BFFFF724FE0128FBD0AF
:1030700001A800F057F901200190002008904FF4BA
:1030800000700B9000200C900F90129014901590EF
:10309000169021904FF00070229000112490002093
:1030A0002690279004202990C0052A9040122B904A
:1030B00080012C9040122D9040002F90002101A8FB
:1030C000FFF718FEC4B2012C03D101210248FFF71B
:1030D000F5FC204630B010BD4000010038B5044674
:1030E0000020009034B10C48006840F004000A4908
:1030F000086005E00848006820F004000649086000
:103100000548006800904FF6FF70FFF770FD024918
:103110000098086038BD00000080024038B50446C1
:103120000020009034B10C48006840F008000A49C3
:10313000086005E00848006820F0080006490860BB
:103140000548006800904FF6FF70FFF750FD0249F8
:103150000098086038BD00000080024010B5A02132
:10316000002008F07BFD14490860A021002008F031
:1031700075FD1249086041F6C451002008F06EFD4B
:103180000F49086041F6C451002008F067FD0D4961
:1031900008600948006840B10848006828B108483C
:1031A000006810B10846006818B9FFF745FD012016
:1031B00010BD0020FCE70000680000206C0000202B
:1031C000700000207400002008B53D208DF800003C
:1031D00001208DF8030000208DF801008DF8020019
:1031E000684600F095FB08BD18B502460B46002165
:1031F000002000901548016901F01C014FF478404F
:1032000000EAC22001434FF4F86000EA8310014352
:1032100021F0020141F001010C48016100BF00985A
:10322000401C00900948016901F0010018B1084CE8
:103230000098A042F3D3064C0098A04201D1002090
:1032400018BD0248406980B2FAE7000000800240E1
:10325000FFFF04001EB5002100220092019202929D
:10326000214A1268126802F0004282B100220092E4
:103270001E4A526902F0800222B180221B4B5A6121
:1032800000229A609DE81C0080E81C001EBD164AC2
:103290001268126802F40042B2B9134A1268126846
:1032A00002F4807282B1104A1268126802F400724D
:1032B00052B10D4A12681268C2F30D42111F0A4A38
:1032C00012689268019200E000210091064A12689B
:1032D0000292054A1268D268034B1A609DE81C00EE
:1032E00080E81C0000BFD1E72800002000900240C9
:1032F0000348006840F00100014908607047000081
:103300000090024010B50120FFF708FF0120FFF7F1
:10331000E5FEFFF77BFC0120FFF724FC0120FFF70F
:10332000DDFB10BD01210160002141608160C160B1
:1033300001614FF48041416100218161C1614FF41D
:1033400000610162002141628162C16201634163E7
:103350008163C163402101642021416400218164B3
:10336000C164016541658165C16501668021416671
:1033700000218166C166016741678167C1674FF0BF
:103380008061C0F880104910C0F884100021C0F896
:1033900088104FF40011C0F88C100021C0F8901074
:1033A000C0F89410C0F89810C0F89C10C0F8A01095
:1033B0004FF00071C0F8A4104912C0F8A81089019C
:1033C000C0F8AC104912C0F8B0100021C0F8B41019
:1033D000C0F8B81070470000014617480068006840
:1033E00000F0004008B100207047C1F30C00124A01
:1033F0001268506010480068006840F040500E4A63
:10340000126810600C480068006840F000400A4AEA
:10341000126810600948406900F0040020B10420DF
:10342000064A50610020506003480068C068024AA4
:1034300010600120D8E70000240000200090024026
:1034400038B503460C46002100200090144801695D
:1034500001F01C014FF4784000EAC32001434FF40F
:10346000F86000EA8410014341F0020141F00101DB
:103470000B484261016100BF0098401C0090084861
:10348000016901F0010018B1064D0098A842F3D37C
:10349000044D0098A84201D1002038BD0120FCE76E
:1034A00000800240FFFF0400F0B50A46002100231F
:1034B000002400BF3DE0012505FA01F3156805EA87
:1034C00003049C4234D105684F000326BE40B54337
:1034D000056015794E00B5400668354305601579DD
:1034E000012D02D01579022D16D185684F000326D3
:1034F000BE40B543856055794E00B540866835437A
:103500008560456801268E40B543456045689679DB
:103510008E40B6B235434560C5684F000326BE40B5
:10352000B543C560D5794E00B540C6683543C56022
:10353000491C1029BFD3F0BDF0B5002300244D076E
:10354000ED0E02FA05F3CE1000F1200555F82650D5
:103550004E07F70E0F26BE40B543CF1000F12006F0
:1035600046F82750CE1000F1200555F8265045EAC0
:103570000304CE1000F1200545F82640F0BD01837C
:10358000704700BFFEE7000002480069012121EA00
:10359000901070470010024002480068012121EAA3
:1035A000902070471014024002480068012121EA6F
:1035B000502070471014024010B504460D48007B9F
:1035C00048B90C48806830B10B48007818B901211F
:1035D0002046FEF7FDFD81212046FEF7F9FD064855
:1035E0000078022805D11F23024A01212046FEF758
:1035F000B8FD10BDCC9201202902002010B5044670
:103600002B4840682B494860294880688860012120
:10361000204606F09EF81F2810D12548006826494C
:1036200088420BD12248407B012807DC2048807B60
:10363000012803DB1E48807B10280CDD1C49487BD9
:103640002022052105F006FB02201C4908702046B7
:10365000FFF7B2FF2AE01648417B00F10F02204637
:1036600005F066F8002803DA2046FFF7A5FF1DE005
:1036700013480078022819D011480078012815D085
:103680000F480078032811D00E480088002806DD76
:103690000C4802880C49204600F0E0F806E0094892
:1036A000008818B90021204600F0B8F810BD0000CD
:1036B000CC920120EC920120555342432902002074
:1036C0002802002026020020CC62012070B50546A9
:1036D0000C460C480078022807D181212846FEF7C5
:1036E00077FD0020074908700BE004F08000802877
:1036F00007D104480078012803D00121284600F0B2
:103700008DF870BD2902002070B504460D461048A2
:103710000078022804D0032811D0042814D10DE029
:103720000C48417B00F10F02204605F001F800280B
:1037300003DA0121204600F071F806E000BF002105
:10374000204600F06BF800E000BF00BF70BD000035
:1037500028020020CC92012070B504460D460D4889
:10376000007810B1012812D103E02046FFF746FF90
:103770000EE00948417B00F10F02204604F0D8FF1B
:10378000002803DA0121204600F048F800E000BFDD
:1037900000BF70BD28020020CC9201200021014A08
:1037A000117070472802002010B5044600200C4913
:1037B00008700C4908700C480068016800208847B0
:1037C00001212046FEF787FC81212046FEF783FC7D
:1037D0001F23064A01212046FEF7C3FC10BD00004E
:1037E00028020020290200208C020020CC92012017
:1037F00010B50446002006490870012005490870EC
:103800001F23054A01212046FEF7ABFC10BD000036
:103810002802002029020020CC92012070B5054624
:103820000C460A480A490860084604730020094902
:1038300008700D23064A81212846FEF7EDFC1F2360
:10384000054A01212846FEF78CFC70BD55534253B2
:10385000EC92012028020020CC92012070B506468F
:103860000D4614460C488068A04202D20A4880687F
:1038700000E0204684B209488068001B0749886040
:103880000020087304200649087023462A46812137
:103890003046FEF7C1FC70BDCC920120EC920120B5
:1038A0002802002000BFFEE730B505460C46224640
:1038B0000021284600F001F830BD2DE9F041054611
:1038C0000B4694460027002402E03F021F43641C7D
:1038D000042CFAD3604605F00306294646B1344667
:1038E00003E001F8013B401E641C08B1042CF8D32E
:1038F0000A4601E080C2001F0428FBD2114602E004
:1039000001F8013B401E0028FAD1BDE8F081704764
:1039100070B5002100230F22C4781CB3174C246813
:1039200004F4E064C4F5E064C4F30721C1F10404C5
:10393000E3B20A4144789C40E1B2847814402143C8
:103940000C07210E0E4C05786155047804F01F0514
:103950000124AC4005786D11AD0005F1E025C5F8F6
:10396000004109E0047804F01F050124AC40054D36
:103970000678761145F8264070BD00000CED00E099
:1039800000E400E080E100E002490143024A1160E6
:10399000704700000000FA050CED00E015481648DD
:1039A00016481748174818481848194819481A4817
:1039B0001A481B481B481C481C481D481D481E48E7
:1039C0001E481F481F4820482048214821482248B7
:1039D0002248234823482448244825482548264887
:1039E000264827482748284828482948294800BF0A
:1039F000704700008C600108EC5F0108F05F01086F
:103A0000F45F0108F85F0108FC5F0108006001082D
:103A100004600108086001080C60010810600108DA
:103A200014600108186001081C600108206001088A
:103A300024600108286001082C600108306001083A
:103A400034600108386001083C60010840600108EA
:103A500044600108486001084C600108506001089A
:103A600054600108586001085C600108606001084A
:103A700064600108686001086C60010870600108FA
:103A800074600108786001087C60010880600108AA
:103A9000846001088860010810B50348006810B10F
:103AA00001480068804710BD9000002070B50446B2
:103AB00000F0C2F800204849087048490870484999
:103AC00008704849086048490860484908704849F2
:103AD00008704849087048490860484908604849E2
:103AE000086048490870484800680A21B0FBF1F0B6
:103AF000464908604648006858B14648056845B1DF
:103B00004348066803E0761E002028602D1D002E25
:103B1000F9D10020404908604049086040490860E8
:103B200040490860404908604049086040490860D1
:103B30004049087002F09EFD02F096FE204601F01A
:103B4000F5FE208800B170BD204602F0D7FA20882B
:103B500000B1F8E7204602F0F9FA208800B1F2E758
:103B6000204602F0F9FB208800B1ECE7204602F085
:103B7000C9FD208800B1E6E7204603F001F820885F
:103B800000B1E0E7204603F023FB208800B1DAE72C
:103B9000204602F01FFA208800B1D4E7204602F048
:103BA00037F8208800B1CEE7204604F081FA20885B
:103BB00000B1C8E7204603F04FFA208800B1C2E701
:103BC000204604F0D1FA208800B1BCE701F0D6FD10
:103BD000FFF7E4FE00BFB6E7A4000020A500002028
:103BE000EC0000204401002048010020D200002009
:103BF000D3000020D4000020E0000020E4000020DA
:103C0000E8000020F40000204C600108F0000020D3
:103C10001C60010818600108840000208800002052
:103C20008C000020900000209400002098000020CC
:103C30009C0000202201002006480068064909680F
:103C400000EB8100054908600846006820F0070085
:103C500008607047186001081C6001084C010020D2
:103C600008480078012800D0704707480078FA28F3
:103C700000DBF9E704480078401C0349087000BFE6
:103C8000F2E70000A5000020A400002010B50024E9
:103C90002D480078012800D010BD00BFFCF75EFB66
:103CA000044600BF2948007828B900BF2046FCF729
:103CB00059FB00BFF0E725480078401E23490870F3
:103CC00008460078002805DD00BF2046FCF74AFBC7
:103CD00000BFE1E71E480078002805DD00BF204650
:103CE000FCF740FB00BFD7E702F0B0FC19490870B1
:103CF0000846007800EB4000174951F820001749AA
:103D000008600846006816490968884205D100BF66
:103D10002046FCF727FB00BFBEE710480068D0F83C
:103D20009000401C0D490968C1F890000D480068DA
:103D3000401C0C490860FEF7E9F800BF2046FCF77C
:103D400011FB00BF00BFA7E7A5000020A4000020D2
:103D5000EC000020D3000020145D01204801002069
:103D600044010020180100202DE9F04104460F46CF
:103D700016461D464FF000082A480078002804DD4A
:103D800042F6E1602880BDE8F0811CB945F6C350D9
:103D90002880F8E71EB946F294502880F3E700BF68
:103DA00000BF00BFFCF7DAFA804600BF00BF1E4824
:103DB0000078401C1C49087000BF00BF4046FCF75B
:103DC000D1FA00BF00BF00BF1848206067603146CD
:103DD00004F1200002F03AFA04F1080002F050FB6E
:103DE000204602F077FC12480088401C10490880E9
:103DF00000BF00BF00BFFCF7B1FA804600BF00BFA4
:103E000009480078401E0849087000BF00BF4046BE
:103E1000FCF7A8FA00BF00BF00BF0020288000BF49
:103E2000B1E70000A4000020EC00002051554555EA
:103E3000DC0000202DE9F04F89B007468946904606
:103E40001E46DDE912544FF0000B78480078002838
:103E500006DD46F2AE102080002009B0BDE8F08FEC
:103E600027B945F6C35020800020F6E726B946F270
:103E7000D52020800020F0E7B8F1000F03D0B8F57E
:103E8000004F02D100E000BF04E045F6256020802D
:103E90000020E2E700BF66493868884204D045F652
:103EA000C45020800020D8E70DB10020286000BF5A
:103EB00000BFFCF753FA834600BF00BF23462A46E3
:103EC000314607F1200002F08DF98246208840B982
:103ED00000BF00BF5846FCF745FA00BF00BF504680
:103EE000BBE708F4004058B100BF00BF5846FCF7DC
:103EF00039FA00BF00BF46F2B01020800020ACE7C6
:103F00004C48007800280BDD00BF00BF5846FCF786
:103F100029FA00BF00BF46F66350208000209CE7CE
:103F200000BF44480078401C4249087000BF00BFF1
:103F30005846FCF717FA00BF00BF00BF4B460522EA
:103F4000394601A802F014FA00BF00BF00BFFCF719
:103F500005FA834600BF00BF36480078401E354949
:103F6000087000BF00BF5846FCF7FCF900BF00BF57
:103F700000BF00F0BFF800BF00BFFCF7EFF98346B9
:103F800000BF00BF2C48006890F8350030B1012810
:103F900015D002282AD0032835D11DE02648006814
:103FA000D0F85CA024480068B0F8600030801DB1F3
:103FB00021480068006C2860002020802BE04FF032
:103FC000000A002030801DB11B480068006C28608A
:103FD00046F2A91020801EE04FF0000A0020308039
:103FE00005B1286047F2D920208014E04FF0000A84
:103FF000002030801DB110480068006C286045F634
:10400000C250208007E04FF0000A0020308046F6C2
:104010002E60208000BF00BF00BF00BF5846FCF7E5
:10402000A1F900BF00BF504617E70000A400002020
:1040300051554555EC000020440100202DE9FF4773
:104040000546884691461F460C9C25B945F6C35047
:104050002080BDE8FF87B7F5004F19D009DC9FB17C
:10406000102F12D0B7F5007F10D0B7F5047F13D111
:104070000DE0A7F50040103858B1B0F5F87F09D031
:10408000B0F5007F08D106E000BF00BF00BF00BF51
:1040900000BF00BF00BF03E045F625602080D8E7E1
:1040A00000BF12492868884203D045F6C4502080DA
:1040B000CFE7FDF7C1FF06460D48007800280BDD6D
:1040C00000204B4642462946CDE9017603940090F4
:1040D000064801F0D5FDBCE73B464A464146284626
:1040E000CDE9006402F01AFB00BFB2E75155455517
:1040F000A400002010B500241F480078002800DD2F
:1041000010BD1E480078002800DDF9E700BFFCF76D
:1041100025F9044600BF02F099FA194908700846CB
:10412000007800EB4000174951F82000164908605C
:104130000846006815490968884205D100BF204635
:10414000FCF710F900BFDBE70F480068D0F89000DB
:10415000401C0D490968C1F890000D480068401CDA
:104160000B490860FDF7CDFE00BF2046FCF7FAF8CA
:1041700000BF00BFC4E70000A4000020EC00002046
:10418000D3000020145D01204801002044010020DC
:104190001801002070B50446002518480078002852
:1041A00003DD46F66250208070BD15480078012876
:1041B00003D045F689602080F6E712480078FA2897
:1041C00003DB45F209202080EEE700BF00BFFCF7CB
:1041D000C5F8054600BF00BF0A480078401C0949E1
:1041E000087002F021FC00BF00BF2846FCF7BAF8B7
:1041F00000BF00BF0020208000BFD5E7A400002042
:10420000A5000020EC0000202DE9F04105460C46F9
:104210001646002700BF00BFFCF7A0F8074600BF06
:1042200000BF012D03D000200D49087002E00120DD
:104230000B49087014B10B48046006E00A48006896
:104240000A21B0FBF1F00749086000BF00BF384603
:10425000FCF788F800BF00BF00203080BDE8F08187
:10426000F4000020F00000204C60010870B5044606
:10427000002520480078002803DD46F665502080A0
:1042800070BD1D480078012803D045F68960208064
:10429000F6E71A48007818B946F664502080EFE730
:1042A00000BF00BFFCF75AF8054600BF00BF134827
:1042B0000078401E114908700846007800280ADD81
:1042C00000BF00BF2846FCF74DF800BF00BF46F610
:1042D00063502080D4E702F0B5FB00BF00BF284642
:1042E000FCF740F800BF00BFFFF704FF002020806C
:1042F00000BFC5E7A4000020A5000020EC000020BE
:104300002DE9F04104460E4617461D464FF00008C1
:1043100026480078002804DD42F6E1602880BDE8E8
:10432000F0811CB945F6C3502880F8E700BF00BFF4
:1043300000BFFCF713F8804600BF00BF1C480078A0
:10434000401C1B49087000BF00BF4046FCF70AF83C
:1043500000BF00BF00BF17482060276200206062D6
:10436000666004F1080002F08BF8204602F0F0FBD2
:1043700011480088401C1049088000BF00BF00BFE2
:10438000FBF7ECFF804600BF00BF09480078401EE5
:104390000749087000BF00BF4046FBF7E3FF00BFBE
:1043A00000BF00BF0020288000BFB8E7A4000020A5
:1043B000EC00002053454D41FC0000202DE9F04762
:1043C00088B00646894690461C46109D4FF0000A6C
:1043D0006E480078002806DD46F2AE1028800020E6
:1043E00008B0BDE8F08726B945F6C3502880002004
:1043F000F6E7B8F1000F03D0B8F5004F02D100E0A6
:1044000000BF04E045F6256028800020E8E700BFF3
:104410005F493068884204D045F6C45028800020A7
:10442000DEE70CB10020206000BF00BFFBF796FF65
:10443000824600BF00BF306A88B1306A401E3062D9
:104440000CB1706A2060376A00BF00BF5046FBF7AE
:1044500089FF00BF00BF002028803846C0E708F46D
:10446000004060B1376A00BF00BF5046FBF77AFFDB
:1044700000BF00BF46F2B01028803846B0E745487C
:10448000007800280BDD00BF00BF5046FBF76AFF35
:1044900000BF00BF46F6635028800020A0E700BFA1
:1044A0003C480078401C3B49087000BF00BF5046A4
:1044B000FBF758FF00BF00BF00BF4B460622314646
:1044C000684601F055FF00BF00BF00BFFBF746FF85
:1044D000824600BF00BF2F480078401E2D4908705B
:1044E00000BF00BF5046FBF73DFF00BF00BF00BF4D
:1044F000FFF700FE00BF00BFFBF730FF824600BFA2
:1045000000BF2548006890F8350030B101280CD074
:1045100002281AD0032821D110E01CB11E480068DF
:10452000006C20600020288024E01CB11A4800683C
:10453000006C206046F2A91028801BE00CB100201E
:10454000206047F2D920288014E01CB1124800688E
:10455000006C206045F6C25028800BE046F62E60C5
:10456000288000BF00BF5046FBF7FCFE00BF00BF25
:10457000002035E700BF376A00BF00BF5046FBF799
:10458000F1FE00BF00BF38462AE70000A40000206B
:1045900053454D41EC000020440100202DE9FF412E
:1045A00005460F46144635B945F6C3502080002015
:1045B00004B0BDE8F0814FB1B7F5007F07D0B7F583
:1045C000004F05D0B7F5024F04D102E000BF00BF95
:1045D00000BF04E045F6256020800020E8E700BF2A
:1045E00012492868884204D045F6C4502080002033
:1045F000DEE7FDF721FD06460D48007800280CDDBA
:104600000020034602462946CDE901760394009036
:10461000064801F035FB0020CAE7234632463946FA
:10462000284602F0B9FA80464046C1E753454D415D
:10463000A400002010B5044612480078E8B902F042
:1046400005F81149087008460078104908700E48AE
:10465000007800EB40000E4951F820000D49086039
:10466000084600680C490860012006490870FDF7FB
:1046700037FC43F69920208002E045F68A602080CE
:1046800010BD0000A5000020D3000020D2000020B3
:10469000145D012048010020440100202DE9F04173
:1046A00007464FF0000800BF00BFFBF757FE8046EB
:1046B00000BF00BF00203D4908603D4908803D49DA
:1046C00008803D4908603D4908603D4908603D4912
:1046D00008603D49088100BF00BF4046FBF742FE2D
:1046E00000BF00BF00BF00BFFBF738FE804600BF21
:1046F00000BF3648046800BF00BF4046FBF732FEEB
:1047000000BF00BF21E000BF00BFFBF727FE8046CF
:1047100000BF00BF00207834E06320602063A06108
:10472000A082E0826062A062FDF786FC2062783C95
:1047300004F164060020B081D4F8BC4000BF00BF83
:104740004046FBF70FFE00BF00BF002CDBD100BFCF
:1047500000BFFBF703FE804600BF00BF1C48056892
:1047600000BF00BF4046FBF7FDFD00BF00BF12E0E9
:1047700000BF00BFFBF7F2FD804600BF00BF05F1A0
:1047800020060020B081AD6900BF00BF4046FBF7A6
:10479000E9FD00BF00BF002DEAD103F065FB03F087
:1047A000DFFD00203880BDE8F0810000B800002067
:1047B000B200002002010020140100202801002086
:1047C00034010020E4000020085D01201C010020CD
:1047D000D8000020F8B5044600266946324800F0AB
:1047E0008FFDBDF8000018B1BDF800002080F8BDB5
:1047F0006A460021022000F0F7FDBDF8000018B164
:10480000BDF800002080F2E700BF00BFFBF7A6FD67
:10481000064600BF00BF00202449086000BF00BF5B
:104820003046FBF79FFD00BF00BF00252048006811
:1048300020490968884205D91D4800681D49096852
:10484000B0FBF1F525B91A4800680A21B0FBF1F573
:104850006A460021284600F0C7FD6946124800F06C
:1048600063FABDF8000018B1BDF800002080BEE773
:1048700000BF00BFFBF772FD064600BF00BF00206F
:104880000D490860094800680C49086001200C497E
:10489000087000BF00BF3046FBF764FD00BF00BFDB
:1048A0000020208000BFA2E79C61012004010020BD
:1048B0004C60010834600108140100200801002048
:1048C0001001002010B50348006810B101480068CD
:1048D000804710BD940000202DE9FF4F87B00446AB
:1048E0009046DDE91BA5DDE91496179F0020039093
:1048F00087480078002805DD47F24A1028800BB071
:10490000BDE8F08F1CB947F2AD102880F7E7B8F189
:10491000000F03D147F24F102880F0E71EB946F68A
:104920002F602880EBE77B480068874203D246F679
:1049300030602880E3E71698B84203D346F631602A
:104940002880DCE7B9F1400F03D346F273202880BA
:10495000D5E7B9F1000F06D16F48844203D046F283
:1049600073202880CBE7B9F13F0F06D16B48844212
:1049700003D046F273202880C1E7204602F038FCBD
:10498000002028800AF0010090B10AF0020078B1FE
:1049900005960020069008E0002105980160059822
:1049A000001D05900698401C06900698B842F3D367
:1049B000169806EB80000490CDE9007A3246404616
:1049C000049B0A9900F06EFB0590C4F828800A98B1
:1049D000E0620898206284F8379005982060049877
:1049E000A06019986065199818B94D480068A065CD
:1049F00001E01998A0651A9860606662A763A4F840
:104A00003CA04FF0000B08E0002104F17C0040F8CE
:104A10002B100BF1010000F0FF0BBBF1000FF3D0E6
:104A200004F16400189901F011FC204600F082F8AE
:104A300000BF00BF00BFFBF791FC039000BF00BFA9
:104A400038480078401C3749087000BF00BF039801
:104A5000FBF788FC00BF00BF00BF94F8370001F0EF
:104A600015FE204601F048FF204602F077FB2E4855
:104A70000088401C2C4908802C48007801282DD043
:104A800000BF00BF00BFFBF769FC039000BF00BF81
:104A900024480078401E2349087008460078A0B9D1
:104AA00023480088002809DD00BF00BF0398FBF7FA
:104AB00059FC00BF00BF01F08DFF0DE000BF00BF3B
:104AC0000398FBF74FFC00BF06E000BF00BF039850
:104AD000FBF748FC00BF00BF00BF10E700BF00BFEE
:104AE00000BFFBF73BFC039000BF00BF0D48007800
:104AF000401E0C49087000BF00BF0398FBF732FC52
:104B000000BF00BF00BFFFF7F5FA00BFF7E60000E7
:104B1000A400002048600108445C0120805B012063
:104B2000F0000020EC00002020010020A500002063
:104B3000B000002010B504460348006818B12046B4
:104B400001490968884710BD8400002070B50446FB
:104B50000D46002667480078002803DD47F24E1016
:104B6000288070BD6448844203D147F24C102880ED
:104B7000F7E76248844203D147F24D102880F0E7FE
:104B80007CB900BF00BFFBF7E9FB064600BF00BFD2
:104B90005B48046800BF00BF3046FBF7E3FB00BF83
:104BA00000BF00BF00BF00BFFBF7D8FB064600BF39
:104BB00000BF54480078401C5249087000BF00BF35
:104BC0003046FBF7CFFB00BF00BF00BF94F83600B4
:104BD00008282DD2DFE800F004090E10080A0F1192
:104BE000204601F0C9FE54E053E000BF204603F028
:104BF0001FF94EE000BF00BF00BF204603F018F9C8
:104C000094F83400082810D2DFE800F00407050803
:104C1000090A0B0600BF00BF08E000BF00BF00BFCD
:104C200000BF204601F064FC00E000BF00BF30E0A0
:104C300000BF00BF00BFFBF791FB064600BF00BFEF
:104C400030480078401E2F49087008460078A0B907
:104C50002D480088002809DD00BF00BF3046FBF763
:104C600081FB00BF00BF01F0B5FE0DE000BF00BF3B
:104C70003046FBF777FB00BF06E000BF00BF3046C1
:104C8000FBF770FB00BF00BF00BF46F62D60288019
:104C900067E700BF04F1640001F082FA204600F0EB
:104CA00037F8204602F072FA18480088401E17496B
:104CB0000880204602F09CFAFF2084F8360000BFEE
:104CC00000BF00BFFBF74AFB064600BF00BF0D4810
:104CD0000078401E0B49087000BF00BF3046FBF74C
:104CE00041FB00BF00BF00BF00202880FFF702FA91
:104CF00000BF36E7A4000020805B0120445C012057
:104D000044010020EC000020B00000202001002021
:104D100010B504460348006818B1204601490968E7
:104D2000884710BD880000207FB504460D46002648
:104D300000BF00BFFBF712FB064600BF00BF1CB15F
:104D40001548006884420AD100BF00BF3046FBF717
:104D500009FB00BF00BF47F2571028807FBD00BF8E
:104D600000BF3046FBF7FEFA00BF00BF0B480078DB
:104D700000280BDD002000900190034602462146EA
:104D8000CDE90205064800F07BFFE7E7294620460B
:104D900002F0A6FB00BFE1E744010020A4000020D0
:104DA0005452455310B504460348006818B12046D4
:104DB00001490968884710BD8C0000202DE9F047A3
:104DC00080460E4614461D464FF000097D48007887
:104DD000002805DD46F2AE1028800020BDE8F087EF
:104DE0001EB1B6F5004F02D100E000BF04E045F669
:104DF000256028800020F1E700BF0CB10020206072
:104E000000BF00BFFBF7AAFA814600BF00BF6E4893
:104E10000068406CA8B36C480068406C401E6A494A
:104E20000968486468480068476C1CB166480068B7
:104E3000006C2060FDF700F963490968096C401AAD
:104E400061490968C1F8A4005F480068D0F8A8006B
:104E50005D490968D1F8A410884207D25A48006811
:104E6000D0F8A40058490968C1F8A80000BF00BFE5
:104E70004846FBF777FA00BF00BF0020288038467D
:104E8000ACE7FFE706F4004058B100BF00BF48465A
:104E9000FBF768FA00BF00BF46F2B0102880002080
:104EA0009CE74A48007800280BDD00BF00BF484659
:104EB000FBF758FA00BF00BF46F663502880002079
:104EC0008CE700BF41480078401C4049087000BF93
:104ED00000BF4846FBF746FA00BF00BF00BF43468D
:104EE00007220021084601F043FA00BF00BF00BFBF
:104EF000FBF734FA814600BF00BF34480078401EFB
:104F00003249087000BF00BF4846FBF72BFA00BFCC
:104F100000BF00BFFFF7EEF800BF00BFFBF71EFAAF
:104F2000814600BF00BF2848006890F8350020B1D6
:104F3000012826D0032834D12CE0FCB12248006897
:104F4000006C2060FDF778F81F490968096C401A69
:104F50001D490968C1F8A4001B480068D0F8A800E2
:104F600019490968D1F8A410884207D21648006888
:104F7000D0F8A40014490968C1F8A80000202880CE
:104F800013E01CB110480068006C206046F2A910C4
:104F900028800AE00CB10020206047F2D920288048
:104FA00003E046F62E60288000BF00BF0648006878
:104FB000476C00BF00BF4846FBF7D4F900BF00BFF5
:104FC00038460BE7A400002044010020EC0000203C
:104FD0002DE9F04705460E4617461C464FF0000ADD
:104FE0002E480078002804DD47F259102080BDE8E3
:104FF000F0871EB946F2D5202080F8E71FB946F2A7
:10500000D5202080F3E700BF00BFFBF7A7F9824659
:1050100000BF00BF0DB922480568286868B900BF05
:1050200000BF5046FBF79EF900BF00BF0020306074
:10503000386047F252102080D9E795F83C0000F024
:10504000010068B900BF00BF5046FBF78BF900BFF5
:1050500000BF00203060386047F254102080C6E75F
:1050600000BF00BF5046FBF77DF900BF00BF4FF007
:105070000008D5F8249003E009F1040908F10108BB
:10508000D9F800000028F7D0C6F80080A86BA0EB84
:10509000080038600020208000BFA8E7A40000209E
:1050A00044010020F0B50446DDE9055602EB850019
:1050B00020F007004FF0000C071F3846C7F800C06B
:1050C0004FF4805C071F3846C7F800C04FF0150C3E
:1050D000071F3846C7F800C04FF0140C071F3846AA
:1050E000C7F800C04FF0130C071F3846C7F800C0C0
:1050F0004FF0120C071F3846C7F800C04FF0110CD4
:10510000071F3846C7F800C04FF0100C071F38467D
:10511000C7F800C04FF0090C071F3846C7F800C099
:105120004FF0080C071F3846C7F800C04FF0070CB7
:10513000071F3846C7F800C04FF0060C071F384657
:10514000C7F800C04FF0050C071F3846C7F800C06D
:105150004FF0040C071F3846C7F800C04FF0030C8F
:10516000071F3846C7F800C04FF0020C071F38462B
:10517000C7F800C04FF0010C071F3846C7F800C041
:105180004FF0000C071F3846C7F800C04FF0807C76
:10519000071F3846C7F800C0071F38463C60DFF8D5
:1051A0005CC1071F3846C7F800C04FF0123C071F0C
:1051B0003846C7F800C04FF0033C071F3846C7F811
:1051C00000C04FF0023C071F3846C7F800C0071F59
:1051D00038463B60071F384639604FF0310C071FD7
:1051E0003846C7F800C04FF0300C071F3846C7F8E4
:1051F00000C04FF0290C071F3846C7F800C04FF019
:10520000280C071F3846C7F800C04FF0270C071FAF
:105210003846C7F800C04FF0260C071F3846C7F8BD
:1052200000C04FF0250C071F3846C7F800C04FF0EC
:10523000240C071F3846C7F800C04FF0230C071F87
:105240003846C7F800C04FF0220C071F3846C7F891
:1052500000C04FF0210C071F3846C7F800C04FF0C0
:10526000200C071F3846C7F800C04FF0190C071F65
:105270003846C7F800C04FF0180C071F3846C7F86B
:1052800000C04FF0170C071F3846C7F800C04FF09A
:10529000160C071F3846C7F800C04FF0113C071F17
:1052A0003846C7F800C04FF0103C071F3846C7F813
:1052B00000C04FF0093C071F3846C7F800C04FF048
:1052C000083C071F3846C7F800C04FF0073C071FCF
:1052D0003846C7F800C04FF0063C071F3846C7F8ED
:1052E00000C04FF0053C071F3846C7F800C04FF01C
:1052F000043C071F3846C7F800C0F0BD21760008FF
:105300007FB505460C461248854203D147F25B1033
:1053100020807FBD0F48854203D147F25C1020807A
:10532000F7E70D48007800280BDD00200090019081
:10533000034602462946CDE90204084800F0A0FCD5
:10534000E7E72146284602F0D9FB00BFE1E700006D
:10535000805B0120445C0120A4000020545355537D
:1053600010B51D48006810B11B4800688047FCF765
:1053700063FE04461948006819490968884215D037
:1053800016480068D0F89800201A14490968C1F836
:10539000940012480068D0F89C0010490968D1F8C0
:1053A000941008440D490968C1F89C000C48006835
:1053B000C0F8984009480068D0F8B4000949096865
:1053C000884205D20748006804490968C1F8B4005A
:1053D00000200449086010BD98000020440100200E
:1053E00048010020E80000202DE9F04105460E4666
:1053F000144600273F480078002804DD47F2752056
:105400002080BDE8F0813C480078002803DD46F6A6
:1054100063502080F5E736B1022E05D0042E0AD065
:10542000082E09D101E000BF00BF1DB947F27E2060
:105430002080E6E704E003E045F625602080E0E711
:1054400000BF00BF00BF00BFFAF788FF074600BFDC
:1054500000BF29480078401C2749087000BF00BFE2
:105460003846FAF77FFF00BF00BF00BF0120234985
:10547000096881F836002346324629461F480068ED
:1054800002F0F8FB2088A8B100BF00BF00BFFAF708
:1054900065FF074600BF00BF17480078401E164949
:1054A000087000BF00BF3846FAF75CFF00BF00BFBE
:1054B00000BFA6E71148006801F05EFA00BF00BF18
:1054C00000BFFAF74BFF074600BF00BF0A4800784D
:1054D000401E0949087000BF00BF3846FAF742FF76
:1054E00000BF00BF00BFFEF705FE0020208000BF08
:1054F00087E70000A4000020EC0000204401002009
:105500002DE9FF5F05460E4617469846DDE90EA4D5
:105510000020009072480078002804DD47F27520D2
:105520002080BDE8FF9F6F480078002803DD46F625
:1055300063502080F5E70AF00E0BBBF1000F09D095
:10554000BBF1020F07D0BBF1040F10D0BBF1080F65
:105550000ED101E000BF00BFB8F1000F06D12FB996
:1055600026B91DB947F27E202080DAE704E003E087
:1055700045F625602080D4E700BF2AF01E0008B160
:10558000012000E0002003900398012803D145F694
:1055900025602080C5E7CAF3001002900298C0B9C8
:1055A000B8F57A7F03D347F27B202080B9E73B2F01
:1055B00003DD47F27A202080B3E73B2E03DD47F27C
:1055C00079202080ADE7632D12DD47F2782020801E
:1055D000A7E742F20F70864203DD47F27920208070
:1055E0009FE7B5F57A7F03DB47F27820208098E7C4
:1055F0003D48D0F800904FF4FA70B0FBF9F0404409
:1056000000FB09F04FF47A71B0FBF1F14FF46160E7
:105610006843C6EB061200EB8200384400FB091019
:1056200001900198002856D000BF00BF00BFFAF7D4
:1056300095FE009000BF00BF2A480078401C294911
:10564000087000BF00BF0098FAF78CFE00BF00BFD3
:1056500000BF01202549096881F8360023465A46D3
:1056600022480199006802F005FB2088A8B100BF1C
:1056700000BF00BFFAF772FE009000BF00BF1948DC
:105680000078401E1749087000BF00BF0098FAF765
:1056900069FE00BF00BF00BF43E71448006801F087
:1056A0006BF900BF00BF00BFFAF758FE009000BFC3
:1056B00000BF0C480078401E0A49087000BF00BFB8
:1056C0000098FAF74FFE00BF00BF00BFFEF712FDC3
:1056D0000020208002E047F27E20208000BF20E7EB
:1056E000A4000020EC0000204C60010844010020D0
:1056F00070B50446002600BF00BFFAF72FFE06462D
:1057000000BF00BF0648056800BF00BF3046FAF77B
:1057100029FE00BF00BF00202080284670BD000089
:105720002401002010B586B000F01EF8FCF784FCC0
:10573000044605A800210091CDE901140390074813
:10574000007800EB4000064A02EB800100231A4675
:10575000044800F095FA06B010BD0000D200002009
:10576000145D01205449434B10B50348006810B143
:1057700001480068804710BD9C000020244825484F
:1057800025482648264827482748284828482948A1
:1057900029482A482A482B482B482C482C482D4871
:1057A0002D482E482E482F482F4830483048314841
:1057B0003148324832483348334834483448354811
:1057C00035483648364837483748384838483948E1
:1057D00039483A483A483B483B483C483C483D48B1
:1057E0003D483E483E483F483F4840484048414881
:1057F0004148424842484348434844484448454851
:105800004548464846484748474800BF704700005B
:1058100090600108F8610108926001089360010836
:1058200094600108986001089C6001089960010873
:10583000C4600108C5600108C6600108C8600108AD
:10584000CA600108CC600108CE600108D060010880
:10585000F0600108F2600108F4600108F6600108D8
:10586000F8600108FA600108FC600108286101087D
:10587000296101082A6101082C6101082E610108D3
:105880002F610108306101083261010834610108AB
:1058900036610108386101083A6101083C6101087C
:1058A0006C6101086D6101086E6101086F6101089A
:1058B0007061010872610108746101089C6101084E
:1058C0009D6101089E6101089F610108A0610108B6
:1058D000A2610108A4610108A8610108A961010889
:1058E000AA610108AB610108AC610108AD61010862
:1058F000AE610108AF610108B0610108B261010841
:10590000B3610108B4610108B6610108B86101081A
:10591000B9610108BC610108F0610108F161010889
:10592000F2610108F4610108F66101080021034AEF
:105930001160034A1180018070470000BC00002004
:10594000C00000202DE9F04F85B0044689469246FC
:105950009B46DDF838800020009000BF00BFFAF7BA
:10596000FDFC009000BF00BFBAF1000F0AD0BAF1F1
:10597000010F0DD0BAF5004F05D06FF40040504430
:1059800060B906E000BF206A40EA0900206214E026
:1059900000BF206A20EA090020620EE000BF00BFBD
:1059A0000098FAF7DFFC00BF00BF45F62560A8F8B5
:1059B0000000002005B0BDE8F08F00BFC4F824B09F
:1059C00004F1080001900198008958B900BF00BF98
:1059D0000098FAF7C7FC00BF00BF0020A8F800003D
:1059E000206AE7E700BF61480078401C5F49087003
:1059F00000BF00BF0098FAF7B5FC00BF00BF00BFB2
:105A000001980768BD687FE07868029095F8880083
:105A100000F00F0003900398012821D002282ED017
:105A2000042802D0082836D10EE0206AD5F880106C
:105A300000EA0106D5F88000B04204D15A4631464A
:105A4000284600F097F859E0206AD5F8801000EA5F
:105A5000010626B15A463146284600F08BF84DE043
:105A6000D5F88000216A20EA0106D5F88000B0420E
:105A700004D15A463146284600F07CF83EE0D5F87D
:105A80008000216A20EA010626B15A46314628469E
:105A900000F070F832E000BF00BF00BFFAF75EFC14
:105AA000009000BF00BF31480078401E2F490870A9
:105AB00008460078A0B92E480088002809DD00BFFC
:105AC00000BF0098FAF74EFC00BF00BF00F082FF55
:105AD0000DE000BF00BF0098FAF744FC00BF06E0ED
