:020000040800F2
:10000000A8A5012015030008772F0008A32B0008DE
:100010000D2F0008AF1E00086BA1000800000000B3
:1000200000000000000000000000000081810008C6
:10003000C1290008000000002B1E00087182000882
:100040002F0300082F0300082F0300082F030008C8
:100050002F0300082F0300082F0300082F030008B8
:100060002F0300082F0300082F0300082F030008A8
:100070002F0300082F030008C1280008F5280008F6
:100080002F0300082F0300082F0300082F03000888
:100090002F0300082F0300082F0300082F03000878
:1000A0002F0300082F0300082F0300082F03000868
:1000B0002F0300082F0300082F0300082F03000858
:1000C0002F0300082F0300082F0300082F03000848
:1000D0002F0300082F0300083D8300084D8300080C
:1000E0002F0300082F0300082F0300082F03000828
:1000F0002F0300082F0300082F0300082F03000818
:100100002F0300082F0300082F0300082F03000807
:100110002F0300082F0300082F0300082F030008F7
:100120002F0300082F0300082F0300082F030008E7
:100130002F030008052A00082F0300082F030008DA
:100140002F0300082F0300082F0300089D760008E6
:100150002F0300082F0300082F0300082F030008B7
:100160002F0300082F0300082F0300082F030008A7
:100170002F0300082F0300082F0300082F03000897
:100180002F0300082F03000800F002F800F0B2F877
:100190000AA090E8000C82448344AAF10107DA45E2
:1001A00001D100F0A7F8AFF2090EBAE80F0013F082
:1001B000010F18BFFB1A43F0010318470CD00000D1
:1001C0002CD000000A444FF0000C10F8013B13F053
:1001D000070408BF10F8014B1D1108BF10F8015BA0
:1001E000641E05D010F8016B641E01F8016BF9D193
:1001F00013F0080F1EBF10F8014BAD1C0C1B09D1EA
:100200006D1E58BF01F801CBFAD505E014F8016B5B
:1002100001F8016B6D1EF9D59142D6D370470000ED
:100220000023002400250026103A28BF78C1FBD8FF
:10023000520728BF30C148BF0B6070476E2900F0DD
:10024000B382702900F0F58366290CF006866529D3
:100250000CF0038667290CF0008661290CF0FF85FD
:1002600003681B0A28BF41F08001692900F0608201
:10027000642900F05D82752900F05A826F2900F030
:100280008283782900F0C183E92900F01D83E429E5
:1002900000F01A83F52900F01783EF2900F07F831F
:1002A000F82900F0C0830368DB0928BF41F0800112
:1002B000632901F0C580732901F0CA80E32901F0A8
:1002C000D580F32901F0DA80002070471FB50CF0CB
:1002D000BFFD00F0C7F90400002000210CF08CFDE8
:1002E000401C6060002000210CF09CFDE0601FBD00
:1002F00010B510BD01F0E6F81146FFF7E7FF0BF06F
:10030000FFFA01F0B3F903B4FFF7F2FF03BC09F001
:1003100053FF00000948804709480047FEE7FEE711
:10032000FEE7FEE7FEE7FEE7FEE7FEE7FEE7FEE7A5
:1003300004480549054A064B70470000D58200086D
:1003400089010008A89F0120A8A50120A8A10120DB
:10035000A8A1012072B6704762B67047EFF3108013
:1003600072B6704780F31088704730BF704720BF67
:100370007047B0FA80F0704790FAA0F0B0FA80F0C1
:10038000704790FAA0F070477047000010B500F079
:1003900069F9001D10BD00BF61CA000053EA020CDC
:1003A00000F069802DE9F04B4FF00006002B1FBFD5
:1003B000B3FA83F503FA05F424FA05F65E4012BF9A
:1003C0001643B2FA82F502FA05F4C5F120051EBF04
:1003D00022FA05FC44EA0C04203556EA044C4FEAA4
:1003E000144418BF641C4FF000084FF000099042FD
:1003F00071EB030C39D3002919BFB1FA81F701FA67
:1004000007F6B0FA80F700FA07F6C7F120071EBF1B
:1004100020FA07FC46EA0C062037B6FBF4FCA7EBF3
:100420000507103F07F01F0BCBF120060CFA0BFB62
:100430002CFA06F644BFB3460026202FA4BF5E4622
:100440004FF0000B5BEA060C08BF4FF0010B19EBF5
:100450000B09ABFB027C48EB0608C01B06FB02CC79
:100460000BFB03CC71EB0C01C1E70B460246414686
:100470004846BDE8F08B13B54FF000004FF0000187
:10048000AFF30080BDE81C40704700001CB50C466F
:10049000064B7B4469460090204600F09EF90446D6
:1004A0000020694600F0ACF920461CBD6B0300003B
:1004B00010B5431C02E010F8011B71B18107FAD19D
:1004C0004FF0013202C88C1A8C4314EAC211F9D0E1
:1004D000C01A0A0603D0C01E10BDC01A10BD0A04FF
:1004E00001D0801E10BD0902FCD0401E10BD032AA1
:1004F00040F2308010F0030C00F0158011F8013B41
:10050000BCF1020F624498BF11F801CB00F8013B27
:1005100038BF11F8013BA2F1040298BF00F801CBEB
:1005200038BF00F8013B11F0030300F02580083AC2
:10053000C0F0088051F8043B083A51F804CBA0E819
:100540000810F5E7121D5CBF51F8043B40F8043B6E
:10055000AFF30080D20724BF11F8013B11F801CBA3
:1005600048BF11F8012B24BF00F8013B00F801CB74
:1005700048BF00F8012B704710B5203AC0F00B803F
:10058000B1E81850203AA0E81850B1E81850A0E897
:100590001850BFF4F5AF5FEA027C24BFB1E81850F1
:1005A000A0E8185044BF18C918C0BDE810405FEA61
:1005B000827C24BF51F8043B40F8043B08BF7047DD
:1005C000D20728BF31F8023B48BF11F8012B28BFE2
:1005D00020F8023B48BF00F8012B70474FF0013C68
:1005E00050F8042B51F8043B9A4221D1A2EB0C03A2
:1005F000934313EACC1317D150F8042B51F8043B62
:100600009A4215D1A2EB0C03934313EACC130BD1FE
:1006100050F8042B51F8043B9A4209D1A2EB0C0389
:10062000934313EACC13DBD04FF00000704700BFB8
:10063000D01A01BAB1FA81F101F0180122FA01F0E1
:10064000CB40C1F12001DBB2C0B2C01A2CFA01F3D9
:10065000D11A914311EAC311E6D170477047704730
:100660007047704700487047689F012070B5044686
:1006700085690068C10601D5302600E02026C00744
:1006800007D070BDD4E9012130469047206A401C54
:1006900020626D1EF6D570BD70B504468569007880
:1006A000C00707D170BDD4E9012120209047206AFE
:1006B000401C20626D1EF6D570BD09684A0501D543
:1006C00040B27047C905FCD500B2704709684A05B9
:1006D00001D5C0B27047C905FCD580B2704770B56E
:1006E0000C460546012A05D02878800600D5EA691F
:1006F000002302E0012305E05B1C934202D2E05C90
:100700000028F9D1A869E618C01AA861286A184417
:1007100028622846FFF7AAFF04E0D5E9012114F872
:10072000010B9047B442F8D32846FFF7B5FF70BDE0
:100730002DE9F0410646002410687529314616A5BA
:1007400010D0FFF7BAFF002802DA404213A507E0F5
:1007500031688A0701D512A502E0490704D511A521
:10076000012401E0FFF7B2FF00210A2206F124076D
:1007700009E0B0FBF2FCB0FBF2F302FB1C003030EE
:1007800078541846491C0028F3D123462A4630469F
:10079000BDE8F04100F065BA000000002D00000047
:1007A0002B0000002000000011680268006A530559
:1007B00001D508700AE0D30501D5088006E01306CC
:1007C00003D5C217C1E9000200E0086001207047AC
:1007D00001694A1C02610878704700B58FB0CDE905
:1007E00001310021059105497944CDE903101146F5
:1007F000684600F029F90FB000BD0000E5FFFFFFDB
:100800000A6802F8010B0A60704700002DE9FF5FDB
:1008100015468A460446DFF8AC80F8440027D8E93C
:1008200000103E46CDE9001010E03AF816106A4676
:1008300002A800F027FE411C07D02178890603D5C5
:10084000E269391891420DD80744761C2078800659
:1008500002D5E069B84205DDAE42E6DB3AF81600A3
:100860000028E2D1A069C01BA0612046FFF7FEFE70
:10087000D8E90010CDE90010002017E03AF8181070
:100880006A4602A800F0FEFDB0F1FF3F81460BD0A2
:1008900000250DF1080B05E0D4E901211BF8050046
:1008A00090476D1C4D45F7D308F10100B0428046DA
:1008B000E4DB206A384420622046FFF7EDFEBDE805
:1008C000FF9F0000AEC800002DE9F0418046D21D18
:1008D00022F007020025D2E90002F52915A614D05E
:1008E000011E72F1000106DA0023D0EB030063EB76
:1008F000020211A608E0D8F800108B0701D50FA658
:1009000002E0490701D50EA601251146002408F191
:10091000240704E000F060F930323A55641C50EAD4
:100920000102F7D12B46324621464046BDE8F04150
:1009300000F097B9000000002D0000002B0000001F
:100940002000000030B4002100F1240408E002F08F
:100950000705D208303542EA4372DB086554491C6A
:1009600052EA0305F3D10468002310A2250707D536
:10097000A40600D421B1C46901230DA2641EC46180
:1009800030BC00F06EB910B5044621461068FFF780
:100990009DFE02462046BDE810400023D2E7D21D4E
:1009A00022F00701D1E90023CCE70000000000009D
:1009B00030000000F0B40D460188090502D5214C35
:1009C0007C4402E01F4C7C440E34002100F12406DC
:1009D00008E002F00F071209E75D42EA03721B0903
:1009E0007754491C52EA0307F3D102780023120717
:1009F00004D5702D06D009B1022311342246F0BC73
:100A000000F02FB901231034F8E770B504460D4605
:100A100021461068FFF75AFE024629462046BDE8E7
:100A200070400023C6E7D21D22F00703D3E900235C
:100A3000C0E70368126843F0200303600823C36122
:100A40000023B7E710C700002DE9F05F8946044690
:100A50004FF0000ADFF874B1FB44C0F820A0204634
:100A6000E1688847002874D0252806D0D4E9012100
:100A70009047206A401C2062F1E700265F4620462E
:100A8000E16888472028054607DB312D05D2781913
:100A900010F8200C08B10643F1E7B00701D526F0A5
:100AA0000406C4F81CA00027C4F818A02A2D09D0F9
:100AB000284609F07AFB38B304EB8708303DC8F8C4
:100AC000185019E059F8041B204604EB8702916185
:100AD000E1688847012F054618D1E069002820DA2F
:100AE00026F020061DE0D8F8180000EB800005EB8A
:100AF00040003038C8F818002046E16888470546AD
:100B000009F053FB0028EED1012F0AD02E2D08D179
:100B10002046E16888477F1C0546022F46F02006E4
:100B2000C4DBA069002803DA404246F00106A06158
:100B3000F00701D026F010066C2D0BD0682D09D0DF
:100B40004C2D39D06A2D35D0742D35D07A2D33D037
:100B500016E038E0E1682F4620468847B84205464F
:100B600009D16C2F26D04FF48060E16806432046FF
:100B70008847054604E06C2F1AD04FF48070064376
:100B80000DB3A5F14100192802D8203546F40066BE
:100B90004A462946204626604E46FFF74FFB80B165
:100BA00001280BD0F61D26F0070000F1080956E7D2
:100BB0004020E4E78020D8E70020D6E706F10409CA
:100BC0004DE7284652E7206ABDE8F09FA0C6000026
:100BD00000487047489F012030B5B0F10A024FEA43
:100BE000900E71F100034EEA817EB0EB0E0061EBD6
:100BF00091014FEA101E4EEA017E10EB0E0041EB10
:100C000011114FEA102E4EEA016E10EB0E0041EB6F
:100C100011214FEA104E4EEA014E10EB0E0041EB4F
:100C20001141401841F100014FEAD00040EA417003
:100C30004FEAD10110EB80054FEA810444EA907439
:100C400044EB01046D1944EB0404521BA3414FF023
:100C5000000348BF0A3200D530BD401C41F10001FD
:100C600030BD2DE9F0470D4699469246044600F105
:100C700024080168880604D5E06921F0100121608C
:100C800000E00120A84201DD471B00E00027A16928
:100C90007A1902EB0900081AA0612078C00602D474
:100CA0002046FFF7E3FC002608E0D4E901211AF80A
:100CB00006009047206A401C761C20624E45F4DBFB
:100CC0002078C0060AD52046FFF7D0FC06E0D4E91C
:100CD000012130209047206A401C2062381EA7F175
:100CE0000107F4DC07E0D4E9012118F8050090477A
:100CF000206A401C2062281EA5F10105F3DC204675
:100D0000FFF7CAFC2078000602D50220BDE8F08774
:100D10000120FBE770472DE9FF4F0C461E464FF0C0
:100D2000FF378BB0D2E90001DDF860800A908A4677
:100D3000C1F30A5505B93D46002108464FF00000B1
:100D4000BAF1000F00F4400005DA00EB80004FF428
:100D5000400101EA50004FEA9059B9F1010F00DD5E
:100D6000B9460A9850EA4A000ED044F61050A5F24F
:100D7000FF3545432F14B8F1000F1ED07542291ED0
:100D80001EDDC9F100021CE0B8F1010F4FF00000B8
:100D900001D0302103E0F24305E02154401CB04271
:100DA000FBDB30460022002121540B99C1F808805A
:100DB000C1E900200FB0BDE8F08FBD1B6D1CDEE760
:100DC0004A4600DA694206A800F0E2FB06AB93E867
:100DD000070003AB83E8070050460A9900F04FFC78
:100DE0008DE80700A0F500501F3800900398002DF3
:100DF00009DD42F21F014A46084403A903906846F0
:100E000000F0AEFE08E0A0F500504A461F3803A9E6
:100E10000390684600F0B8FE8DE807000004000C5F
:100E200003D04FF0FF30410800E01046B8F1000F4A
:100E300003D00022009215461EE0751E05D4FFF770
:100E4000CBFE303262556D1EF9D5B3460122084300
:100E500002D000227F1C04E02078302801D100223B
:100E60007F1E002A099786D01DE0112D07DAFFF7B3
:100E7000B3FE303262556D1C50EA0102F5D10843D1
:100E800002D00098C8B10EE00021681E05E0235C86
:100E9000625C63542254401E491C8142F7DBAB461E
:100EA000A81B401E0990002004F80B000B98099A1B
:100EB000C0F80880C0E9002B7CE711264FF000083D
:100EC00059E72DE9F04F88460446D21D22F007016C
:100ED00091B0D1E90001CDE90A0109F048F90246D3
:100EE0000B98C00F01D02D2007E02068810701D5A5
:100EF0002B2002E0202101EAC000032A099001D042
:100F0000072A05DB03464146204600F001FB0BE1C2
:100F10002078800601D5E06900E00620B8F1650F71
:100F2000814606D0B8F1660F18D0B8F1670F70D1BE
:100F300031E00020B9F1110F009001DB112301E035
:100F400009F101030AAA01A90CA8FFF7E4FEDDE9F3
:100F50000C70002609F10105834647E001204B464D
:100F600000904FF000470AAA01A90CA8FFF7D3FE92
:100F7000DDE90DB00C995D46002610B909F10100BC
:100F80000D18B9EB050003D4C0F1FF3609F10105D6
:100F9000A5EB09002BE0B9F1010F01DA4FF00109CF
:100FA0000020B9F1110F0090484601DD112300E047
:100FB00003460AAA01A90CA8FFF7ADFEDDE90C70F3
:100FC0004D4600268346207800070AD4AB4500DA58
:100FD0005D4601A8012D04DD411911F8011C3029DD
:100FE00007D04F4502DA17F1040F04DA01208246D8
:100FF0000FE06D1EEEE7002F02DCED1B3E4403E028
:10100000781CA84200DD7D1CB81B00F1010A4FF0DE
:1010100000472078000703D4AA4501DB4FF0FF3AD0
:101020000021B7F1004F0DF143088DF8431024D093
:1010300002202B23002F01DA7F422D230A21021EDA
:10104000A0F1010000DC5FB197FBF1FC97FBF1F22E
:1010500001FB1C7C17460CF1300C08F801CDEEE7C3
:10106000A8F1010003702188090501D5452100E0A0
:101070006521A0F1010800F8011C09980FA9A1EB56
:101080000807FF1D00B10120411901EBEA70A169B9
:101090003844081A401EA0612078C00602D42046B9
:1010A000FFF7E4FA099828B1D4E901219047206AB2
:1010B000401C20622078C00622D52046FFF7D6FAD1
:1010C0001EE0002E04DBB34502DD01A8805D00E0D8
:1010D0003020D4E901219047206A401C2062761C10
:1010E000AAF101005FEA000A0AD1FFF7BBFAC06863
:1010F0000168405CD4E901219047206A401C2062CD
:10110000281EA5F10105DCDC07E0D4E9012118F86F
:10111000010B9047206A401C2062381EA7F101078E
:10112000F3DC2046FFF7B8FA032011B043E60000D5
:101130002DE9F04F04460D46D21D22F0070089B07C
:10114000D0E900974846394609F011F80246F80FF1
:1011500001D02D2307E02068810701D52B2302E071
:10116000202101EAC0038DF820300BB1012000E0FE
:101170000020032A824601D0072A04DB29462046A4
:1011800000F0C6F93FE12078800601D40D2500E08B
:10119000E569C7F30A560D2D49DA00214FEA175BBE
:1011A00008464FF00000002F00F4400007DA00EB83
:1011B00080004FF4400100EBD07001EA600081151F
:1011C000012901DD4FF0FF3100224FEA850CBCF10F
:1011D000180F06D31346ACF118004FF08052C240EE
:1011E00003E04FF4801323FA0CF30CF10C0CBCF168
:1011F000200F04D3ACF1200C09FA0CF001E007FA3F
:101200000CF000294FF0004801DD18B90FE00ED1B5
:1012100040450CD319EB02095F4121B9404502D189
:101220009F4329EA0209BBEB175F00D0761C208898
:10123000000502D57B48784402E07A4878441938A2
:1012400008AA302302F80A30037C0AF10101002EBB
:101250000AF1020A53546A4602DC4FF0300101E001
:101260004FF031014FF001088DF8001002D0A6F2C6
:10127000FF3603E059EA470100D06B4E002D02DC37
:101280002178090704D54FF002082E218DF80110AE
:10129000C44600210BE0C7F303433F01C35C491C74
:1012A0006D1E02F80830052908F1010801DA002D49
:1012B000F1DC00210CE000EB1973491C1B786D1E5A
:1012C000082902F808304FEA091908F1010801DA83
:1012D000002DF0DC21688B0602D516E0A8F101088C
:1012E000E04505DD02EB080313F8013C302BF5D097
:1012F000B8F1000F09DD02EB080313F8013C2E2BB7
:1013000003D1090701D4A8F10108002D05DD3E2114
:1013100002F808106D1E08F10108407C002E02F84A
:10132000080008F1010804DA2D20764202F80800CE
:1013300002E02B2002F808000A214FF47A7086425E
:1013400008F101080BDB96FBF0F3303302F80830AC
:1013500096FBF0F308F1010800FB136601E0642E30
:101360000CDB642096FBF0F3303302F8083096FB78
:10137000F0F308F1010800FB136601E00A2E06DB1A
:1013800096FBF1F0303002F8080008F1010896FBF6
:10139000F1F001FB1060303002F80800A16908F19B
:1013A000010808EB050202EB0A00081AA061207888
:1013B000C00602D42046FFF759F9216A08AE01EBB6
:1013C0000A00206204E0D4E9012116F8010B9047DD
:1013D000BAF1010AF7D22078C00602D52046FFF7FD
:1013E00045F96E4609E016F8010B3E280FD0D4E906
:1013F00001219047206A401C2062B8F10108F2D216
:101400002046FFF749F909B00320BDE8F08F206AB4
:101410002844206203E0D4E90121302090476D1E6A
:10142000EBD3F8E7E6BE000002FCFFFF10B543690E
:1014300013B1AFF3008001E0FFF751F9012010BDB7
:10144000127800F124010A7000224A700122EDE7AF
:1014500011684FF0FF32E9E710B5436913B1AFF3FC
:10146000008001E0FFF7D2F9012010BD128800F1E1
:10147000240182840022C2840122EDE711684FF02A
:10148000FF32E9E770B516460C460546FEF77EFFCB
:10149000036893F80101012806D0FF2C0FD8185DCE
:1014A00068B101202C7070BDD3F807013246214687
:1014B00003F2071303442846BDE8704018474FF075
:1014C000FF3070BD7546FFF783FBAE4605006946E9
:1014D000534620F00700854618B020B5FEF728FFD8
:1014E000BDE820404FF000064FF000074FF0000825
:1014F0004FF0000B21F00701AC46ACE8C009ACE8A6
:10150000C009ACE8C009ACE8C0098D4670470000CE
:101510002DE9F0411F46044603260168072A01F41D
:10152000006004DB08B116A505E016A503E008B1CC
:1015300015A500E015A521F010002060A069C01ECF
:10154000A0610FB1401EA0612046FFF78FF84FB198
:10155000D4E9012138469047206A401C2062C01C13
:10156000206206E0206AFAE7D4E9012115F8010BB0
:101570009047761EF8D22046FFF78EF8BDE8F0813E
:101580004E414E006E616E00494E4600696E660027
:101590002DE9F047814616468AB0334878440DC895
:1015A0008DE80D0030487844801C03AC0DC884E8F9
:1015B0000D0041F69B300844372190FBF1F290FB7F
:1015C000F1F5A5F1800501FB12041B3C02D5644234
:1015D000012000E00020DFF890A080460027FA44B8
:1015E000AAF1BE0A0DE0E00709D03246684607EBD3
:1015F00047010AEB810100F0C7FA8DE8070064108B
:101600007F1C002CEFD1184F7F44AC3F18E0E80757
:1016100014D007EB04100DF1180A90E80E008AE8C8
:101620000E00C068F04201D198190890324606A910
:1016300003A800F0A9FA03AB83E807006D10641C4F
:10164000002DE4D132466946B8F1000F03A802D05C
:1016500000F086FA01E000F097FAC9E90001C9F844
:1016600008200AB0BDE8F08710BC000010B50446A1
:10167000AFF300802046BDE81040FEF744BE5FEAAD
:10168000400C08BF91F0000F4FEA8C234FEAC122B3
:1016900043EA51514FEA1C5018BF00F5F0404FEAA1
:1016A000300018BF41F000415FEA6C5C00F0298017
:1016B000BCF1FF3F08BF40F080407047130C06BFED
:1016C00012044FF0100C4FF0000C130E04BF120266
:1016D0000CF1080C130F04BF12010CF1040C930F52
:1016E00004BF92000CF1020CD30F04BF52000CF1A6
:1016F000010C11464FF00002A0F11F00A0EB0C00FE
:10170000704711F0004F08BF704731F000413FF4BF
:10171000D5AF0B0C06BF09044FF0100C4FF0000CB6
:101720000B0E04BF09020CF1080C0B0F04BF0901DA
:101730000CF1040C8B0F04BF89000CF1020CCB0FD1
:1017400004BF49000CF1010CCCF12003A0EB0C000C
:1017500022FA03F302FA0CF241EA030100F101005C
:10176000704720F07F4C80EA030023F07F47ACEB0A
:10177000070303F57C5300F0004003F1FF032DE95C
:1017800080494FEA154B09B44FEA144325EA0B4E42
:1017900024EA03480FF2042606EB132749083E7893
:1017A0005FEA320203FB0667C7F5000707FB06F690
:1017B0004FEA54374FEAD64606F1020607FB066C9D
:1017C000CCF1005C4FEA1C472CEA074C07FB06F4FF
:1017D0000CFB06F504EB15464FEA961634BF0020C5
:1017E0004FF000404FEAD13706FB07FC4FEA1C4C94
:1017F0000CFB0BF7D21B03FB0CF761EB07010CFB97
:101800000EF7B0EB074072EB17420CFB08F734BF42
:10181000A2EB0742B2EB074261EB17414FEA0C44DF
:101820004FEA910706FB07FC4FEA1C4C0CFB0BF739
:10183000B0EBC74072EB573203FB0CF734BFA2EB9F
:10184000C742B2EBC74261EB57310CFB0EF7B0EB6E
:10185000C70072EB57720CFB08F734BFA2EBC7024C
:10186000B2EBC70261EB5771039F4FEA816141EA16
:10187000921104EBCC044FEAD1374FEA826206FBA7
:1018800007FC42EA90124FEA80604FEA1C4C0CFBC6
:101890000BF7D21B03FB0CF761EB07010CFB0EF7F8
:1018A000B0EB074072EB17420CFB08F734BFA2EB1A
:1018B0000742B2EB074261EB17414FEA8C554FEA02
:1018C000910704EB9C2406FB07FC4FEA1C4C0CFB25
:1018D0000BF7B0EBC74072EB573203FB0CF734BF8A
:1018E000A2EBC742B2EBC74261EB57310CFB0EF7DC
:1018F000B0EBC70072EB57720CFB08F734BFA2EBDA
:10190000C702B2EBC70261EB577115EB4C254FEAEA
:10191000816141EA92114FEA82624FEAD13742EA8D
:10192000901206FB07FC44F100044FEA80604FEA86
:101930001C4C0CFB0BF7D21B03FB0CF761EB0701F4
:101940000CFB0EF7B0EB074072EB17420CFB08F7ED
:1019500034BFA2EB0742B2EB074261EB174115EB34
:101960001C154FEA813141EA92414FEA823242EA44
:1019700090424FEA80304FEA0C7644F1000448EA86
:1019800003434EEA0B484FF0000EB2EB080C71EB2C
:10199000030724BF624639464EEB0E0E4FF0000B94
:1019A0000018524149414BEB0B0BB2EB080C71EBA9
:1019B00003077BF1000B24BF624639464EEB0E0E47
:1019C0004FF0000B0018524149414BEB0B0BB2EBAF
:1019D000080C71EB03077BF1000B24BF624639460C
:1019E0004EEB0E0E51EA020718BF46F0010616EB49
:1019F0000E7655F1000254F1000103D5BDE88901CE
:101A0000BDE80088BDE88901BDE80048B61952412B
:101A100041EB0101A3F10103704780807F7E7D7C53
:101A20007B7A7978777676757473727171706F6E70
:101A30006E6D6C6C6B6A6A6968686766666564641B
:101A4000636362616160605F5F5E5E5D5D5C5C5BA5
:101A50005B5A5A5959585857575656555555545414
:101A6000535352525251515050504F4F4F4E4E4D72
:101A70004D4D4C4C4C4B4B4B4A4A4A4949494848BE
:101A800048474747474646464545454444444443FE
:101A900043434342424242414141002B26D4770016
:101AA00021D01CB54FEA370703B44FF010004FF0B8
:101AB00010014FF000000FBCBDE810400BF1010B0E
:101AC000BBF1010F08BF5FEA170722BF12F1010245
:101AD00011F101014FF0004143F1000300F000401B
:101AE00043EA00007047F9D35708DAE746EA0646AA
:101AF00013F1400F4FEA16461FDD13F1200FDFBF31
:101B000016430A46002120335B42C8D0C3F12007A8
:101B100046EA064602FA07F74FEA164646EA07067D
:101B2000C3F1200722FA03F201FA07F721FA03F1C1
:101B30004FF0000342EA0702B1E746EA020646EA2E
:101B400006464FEA164646EA0106BCBF46EA064686
:101B5000360C4FF000034FF000024FF000019EE7FB
:101B60002DE9C048934630B491E8380007C831EAFF
:101B7000400C48BF34EA430C03D5FFF7F2FDFFF7F2
:101B80008CFFF0BCBDE800882DE9C048934630B416
:101B900091E8380007C810F0804F08BF13F0804F5D
:101BA00003D100F005F8FFF778FFF0BCBDE800882E
:101BB00020F07F4780EA030023F07F4C07EB0C0303
:101BC000A3F57C5300F00040A3F1FE0392F0000F58
:101BD00000F0B38095F0000F00F077802DE9014907
:101BE0004FEA11404FEA144621EA004800FB06FC88
:101BF00024EA064708FB06F607FB08F800FB07F790
:101C000018EB06484CEB164C4FEA124B18EB074802
:101C10004FEA15464CEB174022EA0B4E0BFB06FC35
:101C200025EA06470EFB06F607FB0EFE0BFB07F741
:101C30001EEB064E4CEB164C4FF000061EEB074E0B
:101C40004CEB174B18EB0B0840F1000018EB0E0B98
:101C500058EB000840F100008F1A4FF000013CBF24
:101C6000C943661B14BFB5EB040C00213CBFC9433C
:101C7000F61B4FEA17444EEA8E0E27EA04454FEA58
:101C80001C4704FB07622CEA074C05FB07F70CFB1B
:101C900005F604FB0CFC16EB074642EB174216EB6D
:101CA0000C4642EB1C421BEB060658EB020241417C
:101CB00046EA9E0601D5BDE80189B619524141EBBD
:101CC0000101A3F10103BDE801894FEA14454FEA80
:101CD000114724EA054621EA074C05FB07F406FBF9
:101CE00007F70CFB06F105FB0CFC11EB074144EB7D
:101CF00017444FEA124711EB0C4144EB1C4422EA13
:101D0000074C05FB07F206FB07F70CFB06F605FB85
:101D10000CFC16EB074642EB174216EB0C4642EB67
:101D20001C456A1854F1000148BF7047B61952416A
:101D300041EB0101A3F10103704795F0000F37D08B
:101D40004FEA11424FEA144721EA024624EA074CBF
:101D500002FB07F106FB07F70CFB06F402FB0CFC89
:101D600014EB074441EB17414FEA154714EB0C44C1
:101D700041EB1C4125EA074C02FB07F506FB07F780
:101D80000CFB06F602FB0CFC16EB074645EB174571
:101D900016EB0C4645EB1C42121951F1000148BFED
:101DA0007047B619524141EB0101A3F1010370479D
:101DB0004FEA14454FEA114724EA054621EA074C49
:101DC00005FB07F106FB07F70CFB06F24FF00006D8
:101DD00005FB0CFC12EB074241EB174112EB0C42E6
:101DE00051EB1C4148BF7047921841EB0101A3F130
:101DF0000103704722484FF6FF710170002080F305
:101E000009882048016881F308881F484FF08051F5
:101E1000016062B6FEE71C484FF0805101607047D8
:101E200019484FF080510160704772B6EFF3098096
:101E300050B11EF0100F08BF20ED108A203880E846
:101E4000F00F12490968086000B5114880475DF835
:101E500004EB104810490A7802700C480F490A68D0
:101E60000260106890E8F00F20301EF0100F08BFDD
:101E7000B0EC108A80F309884EF0040E62B6704709
:101E800022ED00E05C01002004ED00E054010020A0
:101E900039460008E2000020E3000020580100203D
:101EA0001FB5684605F052FC019804B010BD00BF94
:101EB000FEE710B500F020F800F01AF810BD0000A1
:101EC00010B5002400BF00BFFEF748FA044600BF6B
:101ED00000BF1021054801F01BF800BF00BF2046DD
:101EE000FEF740FA00BF00BF10BD00000C520120F9
:101EF00010B5FFF7E5FF10BD10B5002002490860DE
:101F000000F00AF810BD00008800002001490860B8
:101F1000704700008800002010B5FFF7C1FF04469D
:101F20000848006840F080700649086000200649B3
:101F300048600846006840F0010008602046FFF74E
:101F4000E5FF10BDFCED00E0001000E0014948682D
:101F500070470000001000E070B506460C4604F023
:101F60008000802808D104F07F0000EB800106F596
:101F70008E7000EBC10507E004F07F0000EB8001EC
:101F800006F55D7000EBC10504F07F00287004F0D9
:101F90008000C00968702946304607F0A5FD002082
:101FA00070BD70B506460C4604F08000802808D14C
:101FB00004F07F0000EB800106F58E7000EBC10598
:101FC00005E004EB840106F55D7000EBC10500201F
:101FD000A87004F07F002870C4F3C0106870294610
:101FE000304607F059FD002070BD70B505460C461F
:101FF00004F08000802805D104F07F01284607F016
:102000006DFF02E0284607F043FF002070BD2DE978
:10201000F04106460D4690461F4605F08000802898
:1020200008D105F07F0000EB800106F58E7000EB13
:10203000C10407E005F07F0000EB800106F55D704C
:1020400000EBC10405F07F00207005F08000C0099E
:102050006070C4F80880E770607808B12078E0808C
:10206000022F01D1002020712146304607F0C8FC24
:102070000020BDE8F0812DE9F04105460E461746E7
:10208000984606F07F0000EB800105F55D7000EBDF
:10209000C104E760C4F814800020A061607006F0FD
:1020A0007F002070E878012800D12761207820B9CE
:1020B0002146284607F0C8FB03E02146284607F0E2
:1020C00074FD0020BDE8F08108B500220092009A5E
:1020D00061F30A12009202691268009B1A430369B5
:1020E0001A6008BD70B506460C4604F080008028D2
:1020F00008D104F07F0000EB800106F58E7000EB44
:10210000C10505E004EB840106F55D7000EBC10537
:102110000120A87004F07F002870C4F3C01068701C
:102120002946304607F00FFD002070BD2DE9F04133
:1021300007460D461646984605F07F0000EB8001E5
:1021400007F58E7000EBC1040120607005F07F0080
:102150002070E66026610020A061C4F81480207819
:1021600020B92146384607F06FFB03E02146384688
:1021700007F01BFD0020BDE8F0811CB50446204699
:1021800007F02DFBE068C0680090204607F0D0FE05
:1021900003280BD10020A0704FF40070A08000989D
:1021A00020F4705000F51050009009E00120A0705C
:1021B0004020A080009820F4705000F5A0500090BE
:1021C0000098E168C86000200190019820F4005058
:1021D00000F5005001900198E168486101201CBDA4
:1021E000F8B50546002400200090284607F0DFFEE1
:1021F000064690E006F0010000287DD0E1B22846B6
:1022000000F002FB0090009800F0010030B30120C4
:1022100000FA04F72869406BB84329694863002035
:102220000090009820F00100401C009005F118007B
:1022300050F8240000998160E1B239480068426892
:1022400028469047E878012808D13CB940F211109F
:10225000405D042802D1284607F0A1FB0098C0F396
:10226000C00060B100200090009820F00800083005
:10227000009005F1180050F8240000998160009842
:10228000C0F3001060B100200090009820F0100012
:102290001030009005F1180050F82400009981607A
:1022A0000098C0F3801060B100200090009820F0EA
:1022B00040004030009005F1180050F824000099CB
:1022C00081600098C0F3400060B100200090009849
:1022D00020F00200801C009005F1180050F8240046
:1022E000009981600098C0F3C01028B121462846AB
:1022F00000F09EFA002000E00BE00090009820F033
:1023000080008030009005F1180050F824000099FA
:102310008160641C7608002E7FF46CAF0120F8BD4C
:10232000900100207CB50446002500200190204645
:1023300007F045FE06466FE006F00100002869D070
:10234000E9B2204607F043FE0190019800F0010039
:10235000C8B300200190019820F00100401C0190BA
:1023600004F1540050F8250001998160E0780128BB
:1023700017D104F1540050F825000069009005EBD6
:10238000850104F55D7000EBC10080680099C1F320
:102390001201411A05EB850204F55D7000EBC200E5
:1023A0008161E9B21E480068026820469047E078E3
:1023B000012808D13DB940F21110005D052802D175
:1023C000204607F0ECFA0198C0F3400060B100200D
:1023D0000190019820F00200801C019004F154004B
:1023E00050F82500019981600198C0F3C00088B1C0
:1023F0000B480068816820468847002001900198BA
:1024000020F008000830019004F1540050F8250035
:10241000019981606D1C7608002E8DD101207CBD54
:10242000900100203EB50446A07A70B1D4F80C01AA
:102430000090009820F002000090009820F0010029
:1024400000900099D4F80C010160002001900198DF
:1024500020F00100401C01902069406801998843E8
:102460002169486008480068816920468847002043
:102470000290029820F0004000F100400290029883
:10248000E168486101203EBD900100207CB5044612
:1024900000200190019820F0100010300190E068B9
:1024A000806901998843E1688861E068006A00906A
:1024B000009800F00F0000EB800104F55D7000EB68
:1024C000C1050098C0F3434007282DD2DFE800F093
:1024D0002C04051D1E2C1F0027E00098C0F30A10D5
:1024E00090B10098C0F30A122046E96807F079FD20
:1024F000E8680099C1F30A110844E860A8690099E6
:10250000C1F30A110844A8610FE00EE00DE00822B3
:1025100004F2CC51204607F064FDA8690099C1F38C
:102520000A110844A86100E000BF00BFE0688069AC
:1025300001990843E168886101207CBD38B50446F3
:1025400008480068C168204688470020009000982D
:1025500020F00800083000900098E16848610120F0
:1025600038BD0000900100201FB5044600200090F7
:102570004FF48970005D009023480068416920464F
:10258000884720698068019000200390039820F418
:10259000006000F5006003900398E1684861A07A4C
:1025A00070B3019800F0010050B340F21510005DC7
:1025B000012825D19DF80000032821D10020029098
:1025C000029820F00100401C0290D4F80C01006831
:1025D00002990843D4F80C110860029820F0020018
:1025E000801C0290D4F80C01006802990843D4F8CA
:1025F0000C1108600548006840F0060003490860B7
:10260000012004B010BD00009001002010ED00E09A
:1026100030B587B0044600200290069005900490E3
:1026200003900190029820F00100401C0290206964
:10263000406802998843216948600021204607F0DC
:102640004DFC00250BE0FF2104F1180050F8250097
:10265000816004F1540050F8250081606D1C6078A1
:10266000A842F0D84FF0FF312069816106986FF3DE
:102670000F00401C0690069880B200F5803006904E
:1026800006992069C161059820F00800083005907E
:10269000059820F00100401C0590059820F00200EC
:1026A000801C0590059920694161049820F0010083
:1026B000401C0490049820F008000830049004980E
:1026C00020F00200801C04900499206901612069B7
:1026D00000680390039820F4FE600390039920693A
:1026E0000160204607F05BF900200190019820F47A
:1026F000805000F5805001900198E16848610448DD
:102700000068016920468847012007B030BD0000FD
:10271000900100202DE9F04106460F46394630462B
:1027200007F074FC01214FF4897081550021801C51
:102730008155002511E005EB850106F58E7000EB53
:10274000C104012060702570E5800020E070402009
:10275000A0600020E06060616D1C7078A842EAD83B
:10276000002510E005EB850106F55D7000EBC10466
:10277000002060702570E580E0704020A06000209F
:10278000E06060616D1C7078A842EBD8304607F0BD
:1027900015F8304606F042FE0021304607F09EFC58
:1027A000304606F0CEFE304607F061FBBDE8F08112
:1027B00038B504460020009007480068C1692046EB
:1027C0008847009820F4801000F580100090009851
:1027D000E1684861012038BD9001002038B5044609
:1027E0000020009007480068016A2046884700984A
:1027F00020F4001000F5001000900098E168486196
:10280000012038BD9001002030B5024615692B69C2
:1028100015696C6B24FA01F505F0010543EAC5134F
:1028200002F1180555F82150AD6805EA030030BDE6
:102830002DE9F84307460E4600250020009006EBE0
:10284000860107F58E7000EBC104D4E90501451A35
:10285000A068A84200D2A568E81C4FEA900807F1DA
:10286000180050F82600806900901BE0D4E90501AB
:10287000451AA068A84200D2A568E81C4FEA900853
:10288000ABB2F2B23846E16807F04FFCE06828448A
:10289000E060A0692844A06107F1180050F8260004
:1028A00080690090009880B2404506D9D4E90510AF
:1028B000884202D260690028D8D10120BDE8F8839F
:1028C00010B500F001FD0849084800F047F801285C
:1028D00006D10549054800F027F8054800688047FB
:1028E00000F008FD10BD0000008000185860024094
:1028F0006400002010B500F0E7FC0849084800F02B
:102900002DF8012806D10549054800F00DF80548C5
:102910000068804700F0EEFC10BD00002080002021
:1029200070600240600000200246094B9A4201D2CA
:10293000084801E00648103801F000531BB1064B6F
:102940000B40C36002E0044B0B4083607047000003
:1029500010640240006002407D0F7D0F70B502469A
:10296000002000240025124EB24201D2114B01E09A
:102970000F4B103B104E0E4036B11E2606EAD124F6
:10298000166806EA040502E0566906F0800501F0C3
:1029900000560EB15C6800E01C68084E344004EA42
:1029A000010616B10DB1012000E0002070BD00004D
:1029B00010640240006002403C0F3C0F7D0F7D0F11
:1029C00070470000014948617047000000900240D4
:1029D00001460868C0F30D40704700B50246002369
:1029E000106800F0004058B9106800F4004038B991
:1029F000106800F4807018B11046FFF7E9FF034635
:102A0000184600BD10B501E008F072FF06480068E6
:102A1000FFF7E3FF0028F7D14020FFF7D3FF4FF483
:102A20008030FFF7CFFF10BD280000201EB5002129
:102A30000022009201920292214A1268126802F06A
:102A4000004282B1002200921E4A526902F08002C6
:102A500022B180221B4B5A6100229A609DE81C0023
:102A600080E81C001EBD164A1268126802F400427B
:102A7000B2B9134A1268126802F4807282B1104A25
:102A80001268126802F4007252B10D4A126812689C
:102A9000C2F30D42111F0A4A12689268019200E0C7
:102AA00000210091064A12680292054A1268D26813
:102AB000034B1A609DE81C0080E81C0000BFD1E7B2
:102AC0002800002000900240F0B50A4600210023B3
:102AD000002400BF3DE0012505FA01F3156805EA71
:102AE00003049C4234D105684F000326BE40B54321
:102AF000056015794E00B5400668354305601579C7
:102B0000012D02D01579022D16D185684F000326BC
:102B1000BE40B543856055794E00B5408668354363
:102B20008560456801268E40B543456045689679C5
:102B30008E40B6B235434560C5684F000326BE409F
:102B4000B543C560D5794E00B540C6683543C5600C
:102B5000491C1029BFD3F0BDF0B5002300244D0758
:102B6000ED0E02FA05F3CE1000F1200555F82650BF
:102B70004E07F70E0F26BE40B543CF1000F12006DA
:102B800046F82750CE1000F1200555F8265045EAAA
:102B90000304CE1000F1200545F82640F0BD018366
:102BA000704700BFFEE700004CF6CC4001490860CA
:102BB00070470000003000404AF6AA200149086032
:102BC0007047000000300040014948607047000035
:102BD000003000400149886070470000003000402C
:102BE0000149086070470000003000400248006959
:102BF000012121EA9010704700100240034800694B
:102C000000F0010080F00100704700000000024069
:102C100002480068012121EA502070471014024048
:102C200010B504460D48007B48B90C48806830B1A7
:102C30000B48007818B901212046FFF753FA81218B
:102C40002046FFF74FFA06480078022805D11F23D7
:102C5000024A01212046FFF70EFA10BDEC9D01202B
:102C6000CB01002010B504462B4840682B49486032
:102C70002948806888600121204605F058FE1F28F9
:102C800010D125480068264988420BD12248407B54
:102C9000012807DC2048807B012803DB1E48807B5D
:102CA00010280CDD1C49487B2022052105F0C6F8C0
:102CB00002201C4908702046FFF7B2FF2AE01648A0
:102CC000417B00F10F02204604F026FE002803DAC3
:102CD0002046FFF7A5FF1DE013480078022819D011
:102CE00011480078012815D00F480078032811D02A
:102CF0000E480088002806DD0C4802880C49204652
:102D000000F0E0F806E00948008818B900212046E4
:102D100000F0B8F810BD0000EC9D01200C9E0120D1
:102D200055534243CB010020CA010020C8010020B6
:102D3000EC6D012070B505460C460C480078022861
:102D400007D181212846FFF7CDF9002007490870F7
:102D50000BE004F08000802807D1044800780128A7
:102D600003D00121284600F08DF870BDCB01002072
:102D700070B504460D4610480078022804D0032898
:102D800011D0042814D10DE00C48417B00F10F0252
:102D9000204604F0C1FD002803DA0121204600F09E
:102DA00071F806E000BF0021204600F06BF800E05B
:102DB00000BF00BF70BD0000CA010020EC9D0120D3
:102DC00070B504460D460D48007810B1012812D1A7
:102DD00003E02046FFF746FF0EE00948417B00F183
:102DE0000F02204604F098FD002803DA0121204656
:102DF00000F048F800E000BF00BF70BDCA0100202D
:102E0000EC9D01200021014A11707047CA01002089
:102E100010B5044600200C4908700C4908700C4895
:102E2000006801680020884701212046FFF7DDF88F
:102E300081212046FFF7D9F81F23064A01212046A9
:102E4000FFF719F910BD0000CA010020CB010020D6
:102E50007C020020EC9D012010B5044600200649AC
:102E600008700120054908701F23054A01212046EA
:102E7000FFF701F910BD0000CA010020CB010020BE
:102E8000EC9D012070B505460C460A480A490860C9
:102E9000084604730020094908700D23064A812161
:102EA0002846FFF743F91F23054A01212846FFF76B
:102EB000E2F870BD555342530C9E0120CA01002018
:102EC000EC9D012070B506460D4614460C488068FE
:102ED000A04202D20A48806800E0204684B2094835
:102EE0008068001B07498860002008730420064999
:102EF000087023462A4681213046FFF717F970BD36
:102F0000EC9D01200C9E0120CA01002000BFFEE7BD
:102F100030B505460C4622460021284600F001F84F
:102F200030BD2DE9F04105460B46944600270024AC
:102F300002E03F021F43641C042CFAD3604605F0F4
:102F40000306294646B1344603E001F8013B401E22
:102F5000641C08B1042CF8D30A4601E080C2001FAB
:102F60000428FBD2114602E001F8013B401E002874
:102F7000FAD1BDE8F081704770B5002100230F221F
:102F8000C4781CB3174C246804F4E064C4F5E0640E
:102F9000C4F30721C1F10404E3B20A4144789C4020
:102FA000E1B28478144021430C07210E0E4C0578C1
:102FB0006155047804F01F050124AC4005786D11BB
:102FC000AD0005F1E025C5F8004109E0047804F002
:102FD0001F050124AC40054D0678761145F82640C2
:102FE00070BD00000CED00E000E400E080E100E0D6
:102FF00002490143024A1160704700000000FA05CF
:103000000CED00E0154816481648174817481848B0
:103010001848194819481A481A481B481B481C48A0
:103020001C481D481D481E481E481F481F48204870
:103030002048214821482248224823482348244840
:103040002448254825482648264827482748284810
:1030500028482948294800BF704700001CCF0008B5
:103060007CCE000880CE000884CE000888CE000800
:103070008CCE000890CE000894CE000898CE0008B0
:103080009CCE0008A0CE0008A4CE0008A8CE000860
:10309000ACCE0008B0CE0008B4CE0008B8CE000810
:1030A000BCCE0008C0CE0008C4CE0008C8CE0008C0
:1030B000CCCE0008D0CE0008D4CE0008D8CE000870
:1030C000DCCE0008E0CE0008E4CE0008E8CE000820
:1030D000ECCE0008F0CE0008F4CE0008F8CE0008D0
:1030E000FCCE000800CF000804CF000808CF00087D
:1030F0000CCF000810CF000814CF000818CF00082C
:1031000010B50348006810B101480068804710BD41
:10311000A000002070B5044600F0C2F80020484925
:10312000087048490870484908704849086048498B
:10313000086048490870484908704849087048497B
:10314000086048490860484908604849087048488C
:1031500000680A21B0FBF1F0464908604648006863
:1031600058B14648056845B14348066803E0761EF5
:10317000002028602D1D002EF9D100204049086054
:10318000404908604049086040490860404908607B
:1031900040490860404908604049087002F09EFBC1
:1031A00002F07EFC204601F02DFD208800B170BDAC
:1031B000204602F00FF9208800B1F8E7204602F01F
:1031C00031F9208800B1F2E7204602F0FDF92088AD
:1031D00000B1ECE7204602F0B1FB208800B1E6E741
:1031E000204602F0D1FD208800B1E0E7204603F040
:1031F000F3F8208800B1DAE7204602F057F820887B
:1032000000B1D4E7204601F06FFE208800B1CEE780
:10321000204604F051F8208800B1C8E7204603F0AA
:103220001FF8208800B1C2E7204604F0A1F82088EA
:1032300000B1BCE701F00EFCFFF7E4FE00BFB6E70B
:10324000B4000020B5000020FC0000205401002044
:1032500058010020E2000020E3000020E4000020EC
:10326000F0000020F4000020F800002004010020FD
:10327000DCCE000800010020ACCE0008A8CE00087B
:1032800094000020980000209C000020A000002056
:10329000A4000020A8000020AC0000203201002083
:1032A000064800680649096800EB81000549086086
:1032B0000846006820F0070008607047A8CE0008A4
:1032C000ACCE00085C01002008480078012800D03E
:1032D000704707480078FA2800DBF9E704480078CF
:1032E000401C0349087000BFF2E70000B500002051
:1032F000B400002010B500242D480078012800D02B
:1033000010BD00BFFDF72AF8044600BF2948007829
:1033100028B900BF2046FDF725F800BFF0E7254893
:103320000078401E2349087008460078002805DD13
:1033300000BF2046FDF716F800BFE1E71E48007801
:10334000002805DD00BF2046FDF70CF800BFD7E7D9
:1033500002F0B0FA194908700846007800EB400006
:10336000174951F8200017490860084600681649B7
:103370000968884205D100BF2046FCF7F3FF00BF73
:10338000BEE710480068D0F89000401C0D4909685D
:10339000C1F890000D480068401C0C490860FEF719
:1033A0003FFD00BF2046FCF7DDFF00BF00BFA7E7E1
:1033B000B5000020B4000020FC000020E300002045
:1033C00040680120580100205401002028010020FD
:1033D0002DE9FF470546884691461F460C9C25B9B6
:1033E00045F6C3502080BDE8FF87B7F5004F19D0E0
:1033F00009DC9FB1102F12D0B7F5007F10D0B7F5C0
:10340000047F13D10DE0A7F50040103858B1B0F596
:10341000F87F09D0B0F5007F08D106E000BF00BFFB
:1034200000BF00BF00BF00BF00BF03E045F625603E
:103430002080D8E700BF12492868884203D045F6AB
:10344000C4502080CFE7FEF781FD06460D48007886
:1034500000280BDD00204B4642462946CDE9017687
:1034600003940090064801F077FDBCE73B464A46CE
:1034700041462846CDE9006402F06CFA00BFB2E78D
:1034800051554555B400002010B500241F48007860
:10349000002800DD10BD1E480078002800DDF9E797
:1034A00000BFFCF75BFF044600BF02F003FA1949B6
:1034B00008700846007800EB4000174951F82000DA
:1034C000164908600846006815490968884205D110
:1034D00000BF2046FCF746FF00BFDBE70F4800684F
:1034E000D0F89000401C0D490968C1F890000D48C3
:1034F0000068401C0B490860FEF78DFC00BF2046A9
:10350000FCF730FF00BF00BFC4E70000B40000209C
:10351000FC000020E300002040680120580100204A
:10352000540100202801002070B5044600251848E9
:103530000078002803DD46F66250208070BD1548F3
:103540000078012803D045F689602080F6E712480C
:103550000078FA2803DB45F209202080EEE700BF5F
:1035600000BFFCF7FBFE054600BF00BF0A4800781D
:10357000401C0949087002F073FB00BF00BF2846D9
:10358000FCF7F0FE00BF00BF0020208000BFD5E7A1
:10359000B4000020B5000020FC0000202DE9F0411F
:1035A00005460C461646002700BF00BFFCF7D6FEB6
:1035B000074600BF00BF012D03D000200D49087051
:1035C00002E001200B49087014B10B48046006E0CA
:1035D0000A4800680A21B0FBF1F00749086000BF03
:1035E00000BF3846FCF7BEFE00BF00BF00203080A1
:1035F000BDE8F0810401002000010020DCCE0008BD
:1036000070B50446002520480078002803DD46F602
:103610006550208070BD1D480078012803D045F614
:1036200089602080F6E71A48007818B946F6645099
:103630002080EFE700BF00BFFCF790FE054600BF0B
:1036400000BF13480078401E1149087008460078F2
:1036500000280ADD00BF00BF2846FCF783FE00BF3C
:1036600000BF46F663502080D4E702F007FB00BF9E
:1036700000BF2846FCF776FE00BF00BFFFF704FF3F
:103680000020208000BFC5E7B4000020B500002066
:10369000FC0000202DE9F04788B006468946904698
:1036A0001C46109D4FF0000A6E480078002806DD89
:1036B00046F2AE102880002008B0BDE8F08726B999
:1036C00045F6C35028800020F6E7B8F1000F03D07C
:1036D000B8F5004F02D100E000BF04E045F62560D8
:1036E00028800020E8E700BF5F493068884204D0A6
:1036F00045F6C45028800020DEE70CB10020206091
:1037000000BF00BFFCF72AFE824600BF00BF306A40
:1037100088B1306A401E30620CB1706A2060376A2E
:1037200000BF00BF5046FCF71DFE00BF00BF0020D9
:1037300028803846C0E708F4004060B1376A00BF0F
:1037400000BF5046FCF70EFE00BF00BF46F2B010AF
:1037500028803846B0E74548007800280BDD00BFD8
:1037600000BF5046FCF7FEFD00BF00BF46F66350A9
:1037700028800020A0E700BF3C480078401C3B495F
:10378000087000BF00BF5046FCF7ECFD00BF00BF53
:1037900000BF4B4606223146684601F021FF00BFBC
:1037A00000BF00BFFCF7DAFD824600BF00BF2F4814
:1037B0000078401E2D49087000BF00BF5046FCF73E
:1037C000D1FD00BF00BF00BFFFF75EFE00BF00BF1E
:1037D000FCF7C4FD824600BF00BF2548006890F892
:1037E000350030B101280CD002281AD0032821D18D
:1037F00010E01CB11E480068006C2060002028808A
:1038000024E01CB11A480068006C206046F2A91040
:1038100028801BE00CB10020206047F2D9202880CE
:1038200014E01CB112480068006C206045F6C250DC
:1038300028800BE046F62E60288000BF00BF50466F
:10384000FCF790FD00BF00BF002035E700BF376ADE
:1038500000BF00BF5046FCF785FD00BF00BF3846E3
:103860002AE70000B400002053454D41FC00002031
:10387000540100202DE9FF4105460F46144635B995
:1038800045F6C3502080002004B0BDE8F0814FB160
:10389000B7F5007F07D0B7F5004F05D0B7F5024F59
:1038A00004D102E000BF00BF00BF04E045F6256080
:1038B00020800020E8E700BF12492868884204D031
:1038C00045F6C45020800020DEE7FEF73FFB0646A9
:1038D0000D48007800280CDD0020034602462946EA
:1038E000CDE9017603940090064801F035FB0020F5
:1038F000CAE7234632463946284602F051FA804646
:103900004046C1E753454D41B400002010B5044680
:1039100012480078E8B901F0CDFF11490870084657
:103920000078104908700E48007800EB40000E49FE
:1039300051F820000D490860084600680C490860ED
:10394000012006490870FEF755FA43F699202080B9
:1039500002E045F68A60208010BD0000B50000201E
:10396000E3000020E2000020406801205801002010
:10397000540100202DE9F04107464FF0000800BF38
:1039800000BFFCF7EBFC804600BF00BF00203D49B4
:1039900008603D4908803D4908803D4908603D492F
:1039A00008603D4908603D4908603D49088100BF05
:1039B00000BF4046FCF7D6FC00BF00BF00BF00BF01
:1039C000FCF7CCFC804600BF00BF3648046800BF4F
:1039D00000BF4046FCF7C6FC00BF00BF21E000BFAF
:1039E00000BFFCF7BBFC804600BF00BF002078345E
:1039F000E06320602063A061A082E0826062A06238
:103A0000FEF7A4FA2062783C04F164060020B0813D
:103A1000D4F8BC4000BF00BF4046FCF7A3FC00BF89
:103A200000BF002CDBD100BF00BFFCF797FC804635
:103A300000BF00BF1C48056800BF00BF4046FCF740
:103A400091FC00BF00BF12E000BF00BFFCF786FC86
:103A5000804600BF00BF05F120060020B081AD699F
:103A600000BF00BF4046FCF77DFC00BF00BF002D3B
:103A7000EAD103F0FDFA03F077FD00203880BDE8BD
:103A8000F0810000C8000020C200002012010020C8
:103A9000240100203801002044010020F40000200F
:103AA000346801202C010020E8000020F8B504460D
:103AB00000266946324800F08FFDBDF8000018B1BD
:103AC000BDF800002080F8BD6A460021022000F009
:103AD000F7FDBDF8000018B1BDF800002080F2E746
:103AE00000BF00BFFCF73AFC064600BF00BF002045
:103AF0002449086000BF00BF3046FCF733FC00BF1C
:103B000000BF00252048006820490968884205D97F
:103B10001D4800681D490968B0FBF1F525B91A4830
:103B200000680A21B0FBF1F56A460021284600F042
:103B3000C7FD6946124800F063FABDF8000018B1ED
:103B4000BDF800002080BEE700BF00BFFCF706FC08
:103B5000064600BF00BF00200D4908600948006804
:103B60000C49086001200C49087000BF00BF3046B6
:103B7000FCF7F8FB00BF00BF0020208000BFA2E7D9
:103B8000C86C012014010020DCCE0008C4CE00085F
:103B900024010020180100202001002010B5034856
:103BA000006810B101480068804710BDA4000020E3
:103BB0002DE9FF4F87B004469046DDE91BA5DDE9FE
:103BC0001496179F0020039087480078002805DD91
:103BD00047F24A1028800BB0BDE8F08F1CB947F2BD
:103BE000AD102880F7E7B8F1000F03D147F24F106E
:103BF0002880F0E71EB946F62F602880EBE77B4867
:103C00000068874203D246F630602880E3E71698C2
:103C1000B84203D346F631602880DCE7B9F1400FA3
:103C200003D346F273202880D5E7B9F1000F06D1FF
:103C30006F48844203D046F273202880CBE7B9F165
:103C40003F0F06D16B48844203D046F27320288090
:103C5000C1E7204602F0D0FB002028800AF00100D6
:103C600090B10AF0020078B105960020069008E0B5
:103C70000021059801600598001D05900698401CDC
:103C800006900698B842F3D3169806EB800004908D
:103C9000CDE9007A32464046049B0A9900F06EFB5B
:103CA0000590C4F828800A98E0620898206284F899
:103CB0003790059820600498A0601998606519985D
:103CC00018B94D480068A06501E01998A0651A98D8
:103CD00060606662A763A4F83CA04FF0000B08E0A8
:103CE000002104F17C0040F82B100BF1010000F0E2
:103CF000FF0BBBF1000FF3D004F16400189901F041
:103D0000DDFB204600F082F800BF00BF00BFFCF7DB
:103D100025FB039000BF00BF38480078401C37499E
:103D2000087000BF00BF0398FCF71CFB00BF00BF7A
:103D300000BF94F8370001F0DDFD204601F0F8FEE9
:103D4000204602F00FFB2E480088401C2C490880BA
:103D50002C48007801282DD000BF00BF00BFFCF721
:103D6000FDFA039000BF00BF24480078401E23499D
:103D7000087008460078A0B923480088002809DDAB
:103D800000BF00BF0398FCF7EDFA00BF00BF01F0D1
:103D90003DFF0DE000BF00BF0398FCF7E3FA00BF52
:103DA00006E000BF00BF0398FCF7DCFA00BF00BFCD
:103DB00000BF10E700BF00BF00BFFCF7CFFA0390C1
:103DC00000BF00BF0D480078401E0C49087000BFBE
:103DD00000BF0398FCF7C6FA00BF00BF00BFFFF7A3
:103DE00053FB00BFF7E60000B4000020D8CE000867
:103DF00070670120AC66012000010020FC0000205B
:103E000030010020B5000020C000002010B504469D
:103E10000348006818B1204601490968884710BD69
:103E20009400002070B504460D46002667480078CF
:103E3000002803DD47F24E10288070BD644884429C
:103E400003D147F24C102880F7E76248844203D13F
:103E500047F24D102880F0E77CB900BF00BFFCF7A7
:103E60007DFA064600BF00BF5B48046800BF00BF84
:103E70003046FCF777FA00BF00BF00BF00BF00BFAD
:103E8000FCF76CFA064600BF00BF54480078401C9F
:103E90005249087000BF00BF3046FCF763FA00BF0C
:103EA00000BF00BF94F8360008282DD2DFE800F0EC
:103EB00004090E10080A0F11204601F079FE54E0A3
:103EC00053E000BF204603F0B7F84EE000BF00BF4C
:103ED00000BF204603F0B0F894F83400082810D250
:103EE000DFE800F004070508090A0B0600BF00BF61
:103EF00008E000BF00BF00BF00BF204601F02BFC60
:103F000000E000BF00BF30E000BF00BF00BFFCF713
:103F100025FA064600BF00BF30480078401E2F49F2
:103F2000087008460078A0B92D480088002809DDEF
:103F300000BF00BF3046FCF715FA00BF00BF01F01C
:103F400065FE0DE000BF00BF3046FCF70BFA00BF76
:103F500006E000BF00BF3046FCF704FA00BF00BF18
:103F600000BF46F62D60288067E700BF04F16400BB
:103F700001F082FA204600F037F8204602F00AFAF3
:103F800018480088401E17490880204602F034FA7D
:103F9000FF2084F8360000BF00BF00BFFCF7DEF949
:103FA000064600BF00BF0D480078401E0B49087050
:103FB00000BF00BF3046FCF7D5F900BF00BF00BF0F
:103FC00000202880FFF760FA00BF36E7B400002029
:103FD000AC6601207067012054010020FC00002025
:103FE000C00000203001002010B5044603480068DE
:103FF00018B1204601490968884710BD9800002083
:104000007FB504460D46002600BF00BFFCF7A6F9A9
:10401000064600BF00BF1CB11548006884420AD1A3
:1040200000BF00BF3046FCF79DF900BF00BF47F25C
:10403000571028807FBD00BF00BF3046FCF792F9C3
:1040400000BF00BF0B48007800280BDD0020009067
:104050000190034602462146CDE90205064800F0DC
:104060007BFFE7E72946204602F03EFB00BFE1E781
:1040700054010020B40000205452455310B50446AA
:104080000348006818B1204601490968884710BDF7
:104090009C0000202DE9F04780460E4614461D4640
:1040A0004FF000097D480078002805DD46F2AE108B
:1040B00028800020BDE8F0871EB1B6F5004F02D180
:1040C00000E000BF04E045F6256028800020F1E70D
:1040D00000BF0CB10020206000BF00BFFCF73EF91C
:1040E000814600BF00BF6E480068406CA8B36C48B2
:1040F0000068406C401E6A49096848646848006866
:10410000476C1CB166480068006C2060FDF71EFF1C
:1041100063490968096C401A61490968C1F8A4003B
:104120005F480068D0F8A8005D490968D1F8A4107C
:10413000884207D25A480068D0F8A4005849096854
:10414000C1F8A80000BF00BF4846FCF70BF900BF4C
:1041500000BF002028803846ACE7FFE706F40040A7
:1041600058B100BF00BF4846FCF7FCF800BF00BFD5
:1041700046F2B010288000209CE74A4800780028CA
:104180000BDD00BF00BF4846FCF7ECF800BF00BFE6
:1041900046F66350288000208CE700BF4148007835
:1041A000401C4049087000BF00BF4846FCF7DAF8E1
:1041B00000BF00BF00BF434607220021084601F0B0
:1041C0000FFA00BF00BF00BFFCF7C8F8814600BF70
:1041D00000BF34480078401E3249087000BF00BF5D
:1041E0004846FCF7BFF800BF00BF00BFFFF74CF91F
:1041F00000BF00BFFCF7B2F8814600BF00BF2848EF
:10420000006890F8350020B1012826D0032834D169
:104210002CE0FCB122480068006C2060FDF796FE9F
:104220001F490968096C401A1D490968C1F8A400B2
:104230001B480068D0F8A80019490968D1F8A410F3
:10424000884207D216480068D0F8A40014490968CB
:10425000C1F8A8000020288013E01CB110480068B5
:10426000006C206046F2A91028800AE00CB1002002
:10427000206047F2D920288003E046F62E6028808F
:1042800000BF00BF06480068476C00BF00BF48463B
:10429000FCF768F800BF00BF38460BE7B400002009
:1042A00054010020FC0000202DE9F04705460E4691
:1042B00017461C464FF0000A2E480078002804DDFF
:1042C00047F259102080BDE8F0871EB946F2D5208C
:1042D0002080F8E71FB946F2D5202080F3E700BF21
:1042E00000BFFCF73BF8824600BF00BF0DB9224873
:1042F0000568286868B900BF00BF5046FCF732F86F
:1043000000BF00BF00203060386047F252102080AC
:10431000D9E795F83C0000F0010068B900BF00BF84
:104320005046FCF71FF800BF00BF00203060386027
:1043300047F254102080C6E700BF00BF5046FCF78C
:1043400011F800BF00BF4FF00008D5F8249003E03B
:1043500009F1040908F10108D9F800000028F7D094
:10436000C6F80080A86BA0EB080038600020208011
:1043700000BFA8E7B400002054010020F0B50446B7
:10438000DDE9055602EB850020F007004FF0000C38
:10439000071F3846C7F800C04FF4805C071F384637
:1043A000C7F800C04FF0150C071F3846C7F800C00B
:1043B0004FF0140C071F3846C7F800C04FF0130C1D
:1043C000071F3846C7F800C04FF0120C071F3846C9
:1043D000C7F800C04FF0110C071F3846C7F800C0DF
:1043E0004FF0100C071F3846C7F800C04FF0090CFB
:1043F000071F3846C7F800C04FF0080C071F3846A3
:10440000C7F800C04FF0070C071F3846C7F800C0B8
:104410004FF0060C071F3846C7F800C04FF0050CD8
:10442000071F3846C7F800C04FF0040C071F384676
:10443000C7F800C04FF0030C071F3846C7F800C08C
:104440004FF0020C071F3846C7F800C04FF0010CB0
:10445000071F3846C7F800C04FF0000C071F38464A
:10446000C7F800C04FF0807C071F3846C7F800C06F
:10447000071F38463C60DFF85CC1071F3846C7F8A5
:1044800000C04FF0123C071F3846C7F800C04FF07D
:10449000033C071F3846C7F800C04FF0023C071F17
:1044A0003846C7F800C0071F38463B60071F38462C
:1044B00039604FF0310C071F3846C7F800C04FF085
:1044C000300C071F3846C7F800C04FF0290C071FF3
:1044D0003846C7F800C04FF0280C071F3846C7F809
:1044E00000C04FF0270C071F3846C7F800C04FF038
:1044F000260C071F3846C7F800C04FF0250C071FD1
:104500003846C7F800C04FF0240C071F3846C7F8DC
:1045100000C04FF0230C071F3846C7F800C04FF00B
:10452000220C071F3846C7F800C04FF0210C071FA8
:104530003846C7F800C04FF0200C071F3846C7F8B0
:1045400000C04FF0190C071F3846C7F800C04FF0E5
:10455000180C071F3846C7F800C04FF0170C071F8C
:104560003846C7F800C04FF0160C071F3846C7F88A
:1045700000C04FF0113C071F3846C7F800C04FF08D
:10458000103C071F3846C7F800C04FF0093C071F12
:104590003846C7F800C04FF0083C071F3846C7F838
:1045A00000C04FF0073C071F3846C7F800C04FF067
:1045B000063C071F3846C7F800C04FF0053C071FF0
:1045C0003846C7F800C04FF0043C071F3846C7F80C
:1045D00000C0F0BD296800087FB505460C461248AA
:1045E000854203D147F25B1020807FBD0F48854292
:1045F00003D147F25C102080F7E70D4800780028CF
:104600000BDD002000900190034602462946CDE9CB
:104610000204084800F0A0FCE7E72146284602F023
:1046200071FB00BFE1E70000AC660120706701206C
:10463000B40000205453555310B51D48006810B104
:104640001B4800688047FDF781FC04461948006854
:1046500019490968884215D016480068D0F89800B2
:10466000201A14490968C1F8940012480068D0F86B
:104670009C0010490968D1F8941008440D49096854
:10468000C1F89C000C480068C0F8984009480068D0
:10469000D0F8B40009490968884205D20748006883
:1046A00004490968C1F8B40000200449086010BD3D
:1046B000A80000205401002058010020F80000202C
:1046C0002DE9F04105460E46144600273F48007884
:1046D000002804DD47F275202080BDE8F0813C48C9
:1046E0000078002803DD46F663502080F5E736B1F8
:1046F000022E05D0042E0AD0082E09D101E000BFF9
:1047000000BF1DB947F27E202080E6E704E003E009
:1047100045F625602080E0E700BF00BF00BF00BF76
:10472000FBF71CFE074600BF00BF29480078401C6D
:104730002749087000BF00BF3846FBF713FE00BFD3
:1047400000BF00BF01202349096881F836002346D5
:10475000324629461F48006802F090FB2088A8B125
:1047600000BF00BF00BFFBF7F9FD074600BF00BF59
:1047700017480078401E1649087000BF00BF384631
:10478000FBF7F0FD00BF00BF00BFA6E711480068BF
:1047900001F00EFA00BF00BF00BFFBF7DFFD0746C8
:1047A00000BF00BF0A480078401E0949087000BFDA
:1047B00000BF3846FBF7D6FD00BF00BF00BFFEF7C5
:1047C00063FE0020208000BF87E70000B4000020C7
:1047D000FC000020540100202DE9FF5F05460E4635
:1047E00017469846DDE90EA4002000907248007834
:1047F000002804DD47F275202080BDE8FF9F6F4848
:104800000078002803DD46F663502080F5E70AF0C3
:104810000E0BBBF1000F09D0BBF1020F07D0BBF1AB
:10482000040F10D0BBF1080F0ED101E000BF00BF94
:10483000B8F1000F06D12FB926B91DB947F27E2075
:104840002080DAE704E003E045F625602080D4E725
:1048500000BF2AF01E0008B1012000E000200390F4
:104860000398012803D145F625602080C5E7CAF3E7
:10487000001002900298C0B9B8F57A7F03D347F2CE
:104880007B202080B9E73B2F03DD47F27A20208090
:10489000B3E73B2E03DD47F279202080ADE7632D9F
:1048A00012DD47F278202080A7E742F20F7086429F
:1048B00003DD47F2792020809FE7B5F57A7F03DB9F
:1048C00047F27820208098E73D48D0F800904FF4D8
:1048D000FA70B0FBF9F0404400FB09F04FF47A7134
:1048E000B0FBF1F14FF461606843C6EB061200EBD8
:1048F0008200384400FB091001900198002856D02E
:1049000000BF00BF00BFFBF729FD009000BF00BF44
:104910002A480078401C2949087000BF00BF009851
:10492000FBF720FD00BF00BF00BF0120254909683B
:1049300081F8360023465A4622480199006802F061
:104940009DFA2088A8B100BF00BF00BFFBF706FD9D
:10495000009000BF00BF19480078401E174908703A
:1049600000BF00BF0098FBF7FDFC00BF00BF00BF09
:1049700043E71448006801F01BF900BF00BF00BF07
:10498000FBF7ECFC009000BF00BF0C480078401E15
:104990000A49087000BF00BF0098FBF7E3FC00BFA6
:1049A00000BF00BFFEF770FD0020208002E047F24C
:1049B0007E20208000BF20E7B4000020FC00002003
:1049C000DCCE00085401002070B50446002600BF6C
:1049D00000BFFBF7C3FC064600BF00BF06480568E2
:1049E00000BF00BF3046FBF7BDFC00BF00BF00208A
:1049F0002080284670BD00003401002010B586B02C
:104A000000F01EF8FDF7A2FA044605A80021009167
:104A1000CDE9011403900748007800EB4000064AF6
:104A200002EB800100231A46044800F095FA06B014
:104A300010BD0000E2000020406801205449434BB3
:104A400010B50348006810B101480068804710BDE8
:104A5000AC000020244825482548264826482748F9
:104A6000274828482848294829482A482A482B48BE
:104A70002B482C482C482D482D482E482E482F488E
:104A80002F4830483048314831483248324833485E
:104A9000334834483448354835483648364837482E
:104AA000374838483848394839483A483A483B48FE
:104AB0003B483C483C483D483D483E483E483F48CE
:104AC0003F4840484048414841484248424843489E
:104AD000434844484448454845484648464847486E
:104AE000474800BF7047000020CF000888D000086A
:104AF00022CF000823CF000824CF000828CF0008C9
:104B00002CCF000829CF000854CF000855CF00084B
:104B100056CF000858CF00085ACF00085CCF0008D5
:104B20005ECF000860CF000880CF000882CF000869
:104B300084CF000886CF000888CF00088ACF0008FD
:104B40008CCF0008B8CF0008B9CF0008BACF000852
:104B5000BCCF0008BECF0008BFCF0008C0CF000800
:104B6000C2CF0008C4CF0008C6CF0008C8CF0008D5
:104B7000CACF0008CCCF0008FCCF0008FDCF00084A
:104B8000FECF0008FFCF000800D0000802D00008C8
:104B900004D000082CD000082DD000082ED000082A
:104BA0002FD0000830D0000832D0000834D00008E0
:104BB00038D0000839D000083AD000083BD00008AF
:104BC0003CD000083DD000083ED000083FD000088F
:104BD00040D0000842D0000843D0000844D000086C
:104BE00046D0000848D0000849D000084CD0000842
:104BF00080D0000881D0000882D0000884D000084E
:104C000086D000080021034A1160034A1180018008
:104C100070470000CC000020D00000202DE9F04FAC
:104C200085B00446894692469B46DDF838800020D0
:104C3000009000BF00BFFBF791FB009000BF00BFDA
:104C4000BAF1000F0AD0BAF1010F0DD0BAF5004F3A
:104C500005D06FF40040504460B906E000BF206A00
:104C600040EA0900206214E000BF206A20EA09003F
:104C700020620EE000BF00BF0098FBF773FB00BF8F
:104C800000BF45F62560A8F80000002005B0BDE88B
:104C9000F08F00BFC4F824B004F10800019001981F
:104CA000008958B900BF00BF0098FBF75BFB00BF4D
:104CB00000BF0020A8F80000206AE7E700BF6148B5
:104CC0000078401C5F49087000BF00BF0098FBF7E8
:104CD00049FB00BF00BF00BF01980768BD687FE0C7
:104CE0007868029095F8880000F00F000390039810
:104CF000012821D002282ED0042802D0082836D13D
:104D00000EE0206AD5F8801000EA0106D5F8800090
:104D1000B04204D15A463146284600F097F859E08F
:104D2000206AD5F8801000EA010626B15A463146BD
:104D3000284600F08BF84DE0D5F88000216A20EA83
:104D40000106D5F88000B04204D15A4631462846C3
:104D500000F07CF83EE0D5F88000216A20EA0106E8
:104D600026B15A463146284600F070F832E000BFBE
:104D700000BF00BFFBF7F2FA009000BF00BF314850
:104D80000078401E2F49087008460078A0B92E48C8
:104D90000088002809DD00BF00BF0098FBF7E2FA99
:104DA00000BF00BF00F032FF0DE000BF00BF009861
:104DB000FBF7D8FA00BF06E000BF00BF0098FBF782
:104DC000D1FA00BF00BF00BF43F6FF20A8F80000E3
:104DD00000205BE700BF029F0FB1BD6800E0002527
:104DE000002D7FF47DAF00BF00BF00BFFBF7B6FA18
:104DF000009000BF00BF13480078401E11490870A2
:104E000000BF00BF0098FBF7ADFA00BF00BF00BFB6
:104E10000AF4004008B9FEF737FB00BF00BFFBF7FC
:104E20009DFA009000BF00BF206A049000BF00BF41
:104E30000098FBF797FA00BF00BF0020A8F8000019
:104E4000049823E7FC000020C000002070B5044651
:104E50000E46154634342665002060702070E560EB
:104E6000A078343C082816D2DFE800F004050809D1
:104E70000706101100BF00BF00BF0DE000BF2046B5
:104E800001F024FC002084F8360005E000BF042077
:104E900084F8360000E000BF00BF204600F05BFC55
:104EA00070BD0000002400BF19E000BF00BFFBF789
:104EB00055FA044600BF00BF09480068401C084975
:104EC000086008480068401C0649086000BF00BF31
:104ED0002046FBF747FA00BF00BFFEF711F9E4E7F1
:104EE000B00000201401002010B58AB00446002054
:104EF0000E4908600B2000210591CDE907040691B9
:104F000008460B4909680B4A12680B4B1B68CDE930
:104F10000132CDE903103F200023084A08A1009088
:104F20000C48FEF745FE0AB010BD0000B00000209E
:104F300084CE000880CE00087CCE0008A54E000874
:104F400075432F4F532D4949492049646C652054BE
:104F500061736B00AC6601202DE9F84F04460D46E5
:104F600016461F46DDE90BABDDF82890DDF83480EE
:104F70000020009000BF00BFFBF7F0F9009000BFD9
:104F800000BF2B4800882B49098888423EDA284810
:104F90000088401C264908802748008809888842E4
:104FA00003DA234800882449088024480068046004
:104FB00022480068856021480068C6601F48006874
:104FC00007821E480068C0F814901C480068A0F8CA
:104FD00018A01A480068C0F81CB01848006840685B
:104FE0001649086001201649088116480860486083
:104FF000002000F07FFC1448007818B112480078B7
:10500000124908700020A8F8000008E01048008845
:10501000401C0F49088044F25360A8F8000000BF0C
:1050200000BF0098FBF79EF900BF00BFBDE8F88FF6
:10503000C000002090CE0008C2000020B800002070
:105040004068012070670120E2000020E400002099
:10505000C40000203EB5594800680068584A811ACB
:10506000904279D00FDC5749084400283ED0564979
:105070000844A8B155490844002860D05449084460
:1050800000286AD13FE053480844002850D05249D4
:105090000844002862D0514908440028F1D110E0AA
:1050A00002A8464D00902D68EB69444D2D682A8B6F
:1050B000424D2D686969414D2D68A868FFF7AEFD26
:1050C0007AE002A93D480068C0693C4DCDE9000185
:1050D0002D682B8B394D2D682A8A384D2D68E9684B
:1050E000364D2D68A86800F035FC65E0334B1B6831
:1050F000DA69324B1B68198B304B1B68986802AB1E
:1051000000F04EFE58E002A92C480068C0692B4D03
:10511000CDE900012D682B8B284D2D682A8A274D5B
:105120002D68E968254D2D68A86801F0C9F943E0AC
:1051300022490968886802A901F0D6FA3CE01F4BB1
:105140001B68DA691D4B1B68198B1C4B1B68986820
:1051500002AB01F075FB2FE007E02CE0174909686E
:10516000886802A901F0CEFD26E01D49097801EB0F
:1051700041011C4A02EB810000F09EFD0F480068CF
:1051800002AB0021C269184801F05AFB17480068B9
:10519000401E164908600846006858B9144800685F
:1051A0000860FCF7D3FE044602AB224600211148FA
:1051B00001F046FB00E000BF00BF3EBDBC00002088
:1051C0005449434BADBAB2BE0DF90BFAF2F8F7FFF2
:1051D0000006F6FF00F7FDF700FFEFFF03FE0FFEEE
:1051E000E400002040680120046C012050010020F0
:1051F0004C010020C86C0120002700BF4CE00026B5
:1052000048E000BF00BFFBF7A9F8074600BF00BF9A
:105210002248008888B90020214908810860486038
:1052200000F07AFB00BF00BF3846FBF79BF800BFD9
:1052300000BFFEF729F901262CE000BF00BF384669
:10524000FBF790F800BF00BFFCF780FE0546FFF7B4
:1052500001FFFCF77BFE441B12480068A04201D20C
:105260001048046000BF00BFFBF778F8074600BF96
:1052700000BF0D48006840680B4908600748008877
:10528000401E0649088000BF00BF3846FBF76AF899
:1052900000BF00BF002EB4D0B1E70000C000002066
:1052A00040680120C8000020BC000020F0B589B093
:1052B00005460020314908803148006820B944F291
:1052C0005260288009B0F0BD2E480088022803DA19
:1052D00044F254602880F5E700202B4908602848F4
:1052E00004682646203600270CE02848206000206D
:1052F000A060E060208260612083666020342036F8
:10530000781C87B21F4800888742EEDB203C1C488F
:10531000066866601E4806601E48066000201E493A
:1053200008801E4908801E48006818B944F255607C
:105330002880C7E71B4800681B490968884203D2D8
:1053400044F256602880BDE7032000210591CDE995
:105350000705069113480068144A1268104B1B6831
:10536000CDE90301CDE9013200910B46104A11A1AC
:105370001748FEF71DFC00BFA4E70000C400002092
:105380008CCE000890CE0008C80000204E4F4E453D
:10539000B8000020BC000020C0000020C200002097
:1053A00098CE0008A0CE0008D8CE00089CCE0008F9
:1053B000F951000875432F4F532D4949492049534E
:1053C00052205175657565205461736B00000000B3
:1053D000706701200021034A1160034A1180018097
:1053E00070470000D4000020D800002070B50246AD
:1053F0000B461046114610315E1EB5B2002408E07F
:105400000160002646600681C66010301031661CBF
:10541000B4B2AC42F4DB0026066046600681C6608A
:1054200070BD000010B504461048006818B945F278
:105430001E70208010BD0E48008818B945F21D70FE
:105440002080F7E70A48018808480068FFF7CEFF88
:1054500006480068074908600548008888800020E1
:10546000C8800881208000BFE4E70000BCCE0008AF
:10547000B4CE00083468012010B5014648894B8934
:10548000002B17DD0A680C4B1B6813600A4C4B6835
:1054900023602346DB884C891B1B074CE380234693
:1054A0009B884C892344044CA38000234B818B812F
:1054B0000B604B6010BD00003468012001810022A8
:1054C0004281828102604260704700002DE9F04114
:1054D0000D46DDE90674B0F80AC0B0F80880C4458E
:1054E00005DB46F2935CA4F800C0BDE8F081DFF86C
:1054F000D4C0BCF804C0BCF1000F04D145F21D7C3F
:10550000A4F800C0F1E7DFF8BCC0DCF80010DFF859
:10551000B480D1F800C0C8F800C0C446BCF804C0CC
:10552000ACF1010CA8F804C0C446BCF806C00CF1EC
:10553000010CA8F806C0C446BCF808C0B8F806803C
:10554000C44507DADFF87CC0BCF806C0DFF8748019
:10555000A8F808C0B0F80AC0BCF1000F06D101607D
:1055600041604FF0010CA0F80AC017E003F0100CE6
:10557000BCF1000F07D1066831604FF0000CC1F894
:1055800000C0016004E0D0F804C0C1F800C0416070
:10559000B0F80AC00CF1010CA0F80AC0B0F80CC0B9
:1055A000B0F80A80C44503DAB0F80AC0A0F80CC00D
:1055B0004D600A81CF604FF0000CA4F800C000BF1E
:1055C00093E70000346801200021034A1160034A78
:1055D0001180018070470000DC000020E000002006
:1055E0002DE9F04105460C4616461F461548006851
:1055F00080F8346000201349096881F83500394685
:105600001048006800F092FE6CB104F10808EC60EC
:10561000012229460B48006800F016F8294640464A
:1056200000F066F806E0002006490968C8870549C9
:105630000968086303480168204600F019F8BDE8CE
:10564000F08100005401002010B5C28701630023DF
:105650000AE000244C600C600C614C610C83CC614E
:10566000886020315C1CA3B29342F2DB10BD0000C5
:1056700030B548B14568C1F8C05000F1080422684F
:1056800093681D6AC56113E091F83450022D02D071
:10569000072D08D103E007A5C1F8C05007E007A512
:1056A000C1F8C05003E008A5C1F8C05000BF00BF5A
:1056B00030BD00005461736B205100005461736B66
:1056C0002053656D000000002000000030B507A5E4
:1056D000C1F8C05000F1080422681AB193681D6A2D
:1056E000C56101E001A5C56130BD000020000000DA
:1056F000F0B58E6896F8375007893FB901270781C2
:1057000000274F600F600160416023E007897F1C24
:105710000781026806E0946894F83770AF4200DDB4
:1057200002E05268002AF6D100BF32B900274F606C
:1057300043680B60596041600CE017682FB9116035
:1057400000270F604A60016004E013680B604A6044
:1057500059601160F0BD2DE9F0410446256BE68FDC
:105760000AE0D5F80C8008F108072946384600F011
:105770000AF82035701E86B2002EF2DC0020E08789
:105780002063BDE8F08110B50489012C03D1002409
:105790000460446011E00C6824B94A680024146075
:1057A00002600AE04C6824B90B6800245C60436026
:1057B00003E00B684A685A6013600489641E048120
:1057C00000244C600C6010BD2DE9F84306460C46E1
:1057D00017469846089D94F83600082850D2DFE80E
:1057E00000F00405080906072B2C00BF00BF00BF0E
:1057F00047E000BF94F83400032807D143463A46F7
:1058000021463046009500F03FF803E0E765A4F834
:105810006080256436B12046FFF79DFF2146304663
:10582000FFF754FF204600F051FF00203434A070F1
:10583000607004F8340924E000BF94F834000328B1
:1058400007D143463A4621463046009500F01CF801
:1058500003E0E765A4F860802564204601F0ECFBD6
:1058600036B12046FFF777FF21463046FFF72EFF7F
:1058700004203434A0700020607004F8340900E083
:1058800000BF00BFBDE8F883F0B50446059E086B75
:10589000CD8F0AE0C768A74204D104614261038347
:1058A000C66104E020306F1EBDB2002DF2DC00BFE7
:1058B000F0BD000070B50025074C03E005F12000A5
:1058C000C5B2241D20680028F8D02068FAF751FDE1
:1058D0002844C5B2284670BD8C000020002004E09A
:1058E0000021034A42F82010401C0228F8D37047D8
:1058F0008C00002030B5420900F01F030121C3F1E4
:105900001F04A140034C54F822400C43014D45F8BC
:10591000224030BD8C00002030B5420900F01F034A
:105920000121C3F11F04A140034C54F822408C43D1
:10593000014D45F8224030BD8C0000200021034A73
:105940001160034A1180018070470000E8000020C8
:10595000EC0000202DE9F04F85B007468A469346BB
:105960001C460020029000BF00BF00BFFAF7F6FC03
:10597000029000BF00BF48480078401C46490870AC
:1059800000BF00BF0298FAF7EDFC00BF00BF00BFE8
:1059900007F108063089002842D104F0100010B940
:1059A0004FF0000801E04FF01008DDE90E0143461A
:1059B0005A46CDE90001514607F12000FFF786FD68
:1059C00000BF00BF00BFFAF7C9FC029000BF00BFD4
:1059D00031480078401E3049087008460078A0B968
:1059E0002E480088002809DD00BF00BF0298FAF7A2
:1059F000B9FC00BF00BF00F009F90DE000BF00BF17
:105A00000298FAF7AFFC00BF06E000BF00BF0298A3
:105A1000FAF7A8FC00BF00BF00BF05B0BDE8F08FDB
:105A200004F4007008B1358900E00125D6F8009033
:105A300011E0D9F808000390D9F8040004900E98FA
:105A40005B465246009038460399FFF7BDFEDDF8ED
:105A50001090681E85B2002DEBD100BF00BF00BFC3
:105A6000FAF77CFC029000BF00BF0B480078401E94
:105A70000949087000BF00BF0298FAF773FC00BF25
:105A800000BF00BF04F4004008B9FDF7FDFC002191
:105A90000F98018000BFC0E7FC000020C00000207C
:105AA00000210AE001EB4102054B03EB82000022DA
:105AB0000281026042604A1CD1B24029F2D3704791
:105AC0004068012010B5044694F83700FFF712FF34
:105AD00094F8370005490978884203D1204600F040
